{
	"contracts/did.sol": {
		"DIDRegistry": {
			"abi": [
				{
					"anonymous": false,
					"inputs": [
						{
							"indexed": false,
							"internalType": "string",
							"name": "did",
							"type": "string"
						},
						{
							"indexed": false,
							"internalType": "string",
							"name": "didDocument",
							"type": "string"
						}
					],
					"name": "DIDCreated",
					"type": "event"
				},
				{
					"anonymous": false,
					"inputs": [
						{
							"indexed": false,
							"internalType": "string",
							"name": "did",
							"type": "string"
						},
						{
							"indexed": false,
							"internalType": "string",
							"name": "didDocument",
							"type": "string"
						}
					],
					"name": "DIDResolved",
					"type": "event"
				},
				{
					"inputs": [
						{
							"internalType": "string",
							"name": "_did",
							"type": "string"
						},
						{
							"internalType": "string",
							"name": "_didDocument",
							"type": "string"
						}
					],
					"name": "createDID",
					"outputs": [],
					"stateMutability": "nonpayable",
					"type": "function"
				},
				{
					"inputs": [
						{
							"internalType": "string",
							"name": "_did",
							"type": "string"
						}
					],
					"name": "resolveDID",
					"outputs": [
						{
							"internalType": "string",
							"name": "",
							"type": "string"
						}
					],
					"stateMutability": "view",
					"type": "function"
				}
			],
			"devdoc": {
				"kind": "dev",
				"methods": {},
				"version": 1
			},
			"evm": {
				"assembly": "    /* \"contracts/did.sol\":60:1570  contract DIDRegistry {... */\n  mstore(0x40, 0x80)\n  callvalue\n  dup1\n  iszero\n  tag_1\n  jumpi\n  0x00\n  dup1\n  revert\ntag_1:\n  pop\n  dataSize(sub_0)\n  dup1\n  dataOffset(sub_0)\n  0x00\n  codecopy\n  0x00\n  return\nstop\n\nsub_0: assembly {\n        /* \"contracts/did.sol\":60:1570  contract DIDRegistry {... */\n      mstore(0x40, 0x80)\n      callvalue\n      dup1\n      iszero\n      tag_1\n      jumpi\n      0x00\n      dup1\n      revert\n    tag_1:\n      pop\n      jumpi(tag_2, lt(calldatasize, 0x04))\n      shr(0xe0, calldataload(0x00))\n      dup1\n      0x1539a507\n      eq\n      tag_3\n      jumpi\n      dup1\n      0x9d7f0bbf\n      eq\n      tag_4\n      jumpi\n    tag_2:\n      0x00\n      dup1\n      revert\n        /* \"contracts/did.sol\":606:1057  function createDID(string memory _did, string memory _didDocument) public {... */\n    tag_3:\n      tag_5\n      0x04\n      dup1\n      calldatasize\n      sub\n      dup2\n      add\n      swap1\n      tag_6\n      swap2\n      swap1\n      tag_7\n      jump\t// in\n    tag_6:\n      tag_8\n      jump\t// in\n    tag_5:\n      stop\n        /* \"contracts/did.sol\":1113:1565  function resolveDID(string memory _did) public view returns (string memory) {... */\n    tag_4:\n      tag_9\n      0x04\n      dup1\n      calldatasize\n      sub\n      dup2\n      add\n      swap1\n      tag_10\n      swap2\n      swap1\n      tag_11\n      jump\t// in\n    tag_10:\n      tag_12\n      jump\t// in\n    tag_9:\n      mload(0x40)\n      tag_13\n      swap2\n      swap1\n      tag_14\n      jump\t// in\n    tag_13:\n      mload(0x40)\n      dup1\n      swap2\n      sub\n      swap1\n      return\n        /* \"contracts/did.sol\":606:1057  function createDID(string memory _did, string memory _didDocument) public {... */\n    tag_8:\n        /* \"contracts/did.sol\":799:800  0 */\n      0x00\n        /* \"contracts/did.sol\":765:777  didDocuments */\n      dup1\n        /* \"contracts/did.sol\":778:782  _did */\n      dup4\n        /* \"contracts/did.sol\":765:783  didDocuments[_did] */\n      mload(0x40)\n      tag_16\n      swap2\n      swap1\n      tag_17\n      jump\t// in\n    tag_16:\n      swap1\n      dup2\n      mstore\n      0x20\n      add\n      mload(0x40)\n      dup1\n      swap2\n      sub\n      swap1\n      keccak256\n        /* \"contracts/did.sol\":765:787  didDocuments[_did].did */\n      0x00\n      add\n        /* \"contracts/did.sol\":759:795  bytes(didDocuments[_did].did).length */\n      dup1\n      sload\n      tag_18\n      swap1\n      tag_19\n      jump\t// in\n    tag_18:\n      swap1\n      pop\n        /* \"contracts/did.sol\":759:800  bytes(didDocuments[_did].did).length == 0 */\n      eq\n        /* \"contracts/did.sol\":751:823  require(bytes(didDocuments[_did].did).length == 0, \"DID already exists\") */\n      tag_20\n      jumpi\n      mload(0x40)\n      0x08c379a000000000000000000000000000000000000000000000000000000000\n      dup2\n      mstore\n      0x04\n      add\n      tag_21\n      swap1\n      tag_22\n      jump\t// in\n    tag_21:\n      mload(0x40)\n      dup1\n      swap2\n      sub\n      swap1\n      revert\n    tag_20:\n        /* \"contracts/did.sol\":897:928  DIDDocument(_did, _didDocument) */\n      mload(0x40)\n      dup1\n      0x40\n      add\n      0x40\n      mstore\n      dup1\n        /* \"contracts/did.sol\":909:913  _did */\n      dup4\n        /* \"contracts/did.sol\":897:928  DIDDocument(_did, _didDocument) */\n      dup2\n      mstore\n      0x20\n      add\n        /* \"contracts/did.sol\":915:927  _didDocument */\n      dup3\n        /* \"contracts/did.sol\":897:928  DIDDocument(_did, _didDocument) */\n      dup2\n      mstore\n      pop\n        /* \"contracts/did.sol\":876:888  didDocuments */\n      0x00\n        /* \"contracts/did.sol\":889:893  _did */\n      dup4\n        /* \"contracts/did.sol\":876:894  didDocuments[_did] */\n      mload(0x40)\n      tag_23\n      swap2\n      swap1\n      tag_17\n      jump\t// in\n    tag_23:\n      swap1\n      dup2\n      mstore\n      0x20\n      add\n      mload(0x40)\n      dup1\n      swap2\n      sub\n      swap1\n      keccak256\n        /* \"contracts/did.sol\":876:928  didDocuments[_did] = DIDDocument(_did, _didDocument) */\n      0x00\n      dup3\n      add\n      mload\n      dup2\n      0x00\n      add\n      swap1\n      dup2\n      tag_24\n      swap2\n      swap1\n      tag_25\n      jump\t// in\n    tag_24:\n      pop\n      0x20\n      dup3\n      add\n      mload\n      dup2\n      0x01\n      add\n      swap1\n      dup2\n      tag_26\n      swap2\n      swap1\n      tag_25\n      jump\t// in\n    tag_26:\n      pop\n      swap1\n      pop\n      pop\n        /* \"contracts/did.sol\":1019:1049  DIDCreated(_did, _didDocument) */\n      0x15a910d2efaf7349f437c783d73a5fc8330afad390e19ac0d6bebd5ebe1301ee\n        /* \"contracts/did.sol\":1030:1034  _did */\n      dup3\n        /* \"contracts/did.sol\":1036:1048  _didDocument */\n      dup3\n        /* \"contracts/did.sol\":1019:1049  DIDCreated(_did, _didDocument) */\n      mload(0x40)\n      tag_27\n      swap3\n      swap2\n      swap1\n      tag_28\n      jump\t// in\n    tag_27:\n      mload(0x40)\n      dup1\n      swap2\n      sub\n      swap1\n      log1\n        /* \"contracts/did.sol\":606:1057  function createDID(string memory _did, string memory _didDocument) public {... */\n      pop\n      pop\n      jump\t// out\n        /* \"contracts/did.sol\":1113:1565  function resolveDID(string memory _did) public view returns (string memory) {... */\n    tag_12:\n        /* \"contracts/did.sol\":1174:1187  string memory */\n      0x60\n        /* \"contracts/did.sol\":1302:1303  0 */\n      0x00\n        /* \"contracts/did.sol\":1268:1280  didDocuments */\n      dup1\n        /* \"contracts/did.sol\":1281:1285  _did */\n      dup4\n        /* \"contracts/did.sol\":1268:1286  didDocuments[_did] */\n      mload(0x40)\n      tag_30\n      swap2\n      swap1\n      tag_17\n      jump\t// in\n    tag_30:\n      swap1\n      dup2\n      mstore\n      0x20\n      add\n      mload(0x40)\n      dup1\n      swap2\n      sub\n      swap1\n      keccak256\n        /* \"contracts/did.sol\":1268:1290  didDocuments[_did].did */\n      0x00\n      add\n        /* \"contracts/did.sol\":1262:1298  bytes(didDocuments[_did].did).length */\n      dup1\n      sload\n      tag_31\n      swap1\n      tag_19\n      jump\t// in\n    tag_31:\n      swap1\n      pop\n        /* \"contracts/did.sol\":1262:1303  bytes(didDocuments[_did].did).length != 0 */\n      sub\n        /* \"contracts/did.sol\":1254:1326  require(bytes(didDocuments[_did].did).length != 0, \"DID does not exist\") */\n      tag_32\n      jumpi\n      mload(0x40)\n      0x08c379a000000000000000000000000000000000000000000000000000000000\n      dup2\n      mstore\n      0x04\n      add\n      tag_33\n      swap1\n      tag_34\n      jump\t// in\n    tag_33:\n      mload(0x40)\n      dup1\n      swap2\n      sub\n      swap1\n      revert\n    tag_32:\n        /* \"contracts/did.sol\":1404:1431  DIDDocument memory document */\n      0x00\n        /* \"contracts/did.sol\":1434:1446  didDocuments */\n      dup1\n        /* \"contracts/did.sol\":1447:1451  _did */\n      dup4\n        /* \"contracts/did.sol\":1434:1452  didDocuments[_did] */\n      mload(0x40)\n      tag_35\n      swap2\n      swap1\n      tag_17\n      jump\t// in\n    tag_35:\n      swap1\n      dup2\n      mstore\n      0x20\n      add\n      mload(0x40)\n      dup1\n      swap2\n      sub\n      swap1\n      keccak256\n        /* \"contracts/did.sol\":1404:1452  DIDDocument memory document = didDocuments[_did] */\n      mload(0x40)\n      dup1\n      0x40\n      add\n      0x40\n      mstore\n      swap1\n      dup2\n      0x00\n      dup3\n      add\n      dup1\n      sload\n      tag_36\n      swap1\n      tag_19\n      jump\t// in\n    tag_36:\n      dup1\n      0x1f\n      add\n      0x20\n      dup1\n      swap2\n      div\n      mul\n      0x20\n      add\n      mload(0x40)\n      swap1\n      dup2\n      add\n      0x40\n      mstore\n      dup1\n      swap3\n      swap2\n      swap1\n      dup2\n      dup2\n      mstore\n      0x20\n      add\n      dup3\n      dup1\n      sload\n      tag_37\n      swap1\n      tag_19\n      jump\t// in\n    tag_37:\n      dup1\n      iszero\n      tag_38\n      jumpi\n      dup1\n      0x1f\n      lt\n      tag_39\n      jumpi\n      0x0100\n      dup1\n      dup4\n      sload\n      div\n      mul\n      dup4\n      mstore\n      swap2\n      0x20\n      add\n      swap2\n      jump(tag_38)\n    tag_39:\n      dup3\n      add\n      swap2\n      swap1\n      0x00\n      mstore\n      keccak256(0x00, 0x20)\n      swap1\n    tag_40:\n      dup2\n      sload\n      dup2\n      mstore\n      swap1\n      0x01\n      add\n      swap1\n      0x20\n      add\n      dup1\n      dup4\n      gt\n      tag_40\n      jumpi\n      dup3\n      swap1\n      sub\n      0x1f\n      and\n      dup3\n      add\n      swap2\n    tag_38:\n      pop\n      pop\n      pop\n      pop\n      pop\n      dup2\n      mstore\n      0x20\n      add\n      0x01\n      dup3\n      add\n      dup1\n      sload\n      tag_41\n      swap1\n      tag_19\n      jump\t// in\n    tag_41:\n      dup1\n      0x1f\n      add\n      0x20\n      dup1\n      swap2\n      div\n      mul\n      0x20\n      add\n      mload(0x40)\n      swap1\n      dup2\n      add\n      0x40\n      mstore\n      dup1\n      swap3\n      swap2\n      swap1\n      dup2\n      dup2\n      mstore\n      0x20\n      add\n      dup3\n      dup1\n      sload\n      tag_42\n      swap1\n      tag_19\n      jump\t// in\n    tag_42:\n      dup1\n      iszero\n      tag_43\n      jumpi\n      dup1\n      0x1f\n      lt\n      tag_44\n      jumpi\n      0x0100\n      dup1\n      dup4\n      sload\n      div\n      mul\n      dup4\n      mstore\n      swap2\n      0x20\n      add\n      swap2\n      jump(tag_43)\n    tag_44:\n      dup3\n      add\n      swap2\n      swap1\n      0x00\n      mstore\n      keccak256(0x00, 0x20)\n      swap1\n    tag_45:\n      dup2\n      sload\n      dup2\n      mstore\n      swap1\n      0x01\n      add\n      swap1\n      0x20\n      add\n      dup1\n      dup4\n      gt\n      tag_45\n      jumpi\n      dup3\n      swap1\n      sub\n      0x1f\n      and\n      dup3\n      add\n      swap2\n    tag_43:\n      pop\n      pop\n      pop\n      pop\n      pop\n      dup2\n      mstore\n      pop\n      pop\n      swap1\n      pop\n        /* \"contracts/did.sol\":1537:1545  document */\n      dup1\n        /* \"contracts/did.sol\":1537:1557  document.didDocument */\n      0x20\n      add\n      mload\n        /* \"contracts/did.sol\":1530:1557  return document.didDocument */\n      swap2\n      pop\n      pop\n        /* \"contracts/did.sol\":1113:1565  function resolveDID(string memory _did) public view returns (string memory) {... */\n      swap2\n      swap1\n      pop\n      jump\t// out\n        /* \"#utility.yul\":7:82   */\n    tag_46:\n        /* \"#utility.yul\":40:46   */\n      0x00\n        /* \"#utility.yul\":73:75   */\n      0x40\n        /* \"#utility.yul\":67:76   */\n      mload\n        /* \"#utility.yul\":57:76   */\n      swap1\n      pop\n        /* \"#utility.yul\":7:82   */\n      swap1\n      jump\t// out\n        /* \"#utility.yul\":88:205   */\n    tag_47:\n        /* \"#utility.yul\":197:198   */\n      0x00\n        /* \"#utility.yul\":194:195   */\n      dup1\n        /* \"#utility.yul\":187:199   */\n      revert\n        /* \"#utility.yul\":211:328   */\n    tag_48:\n        /* \"#utility.yul\":320:321   */\n      0x00\n        /* \"#utility.yul\":317:318   */\n      dup1\n        /* \"#utility.yul\":310:322   */\n      revert\n        /* \"#utility.yul\":334:451   */\n    tag_49:\n        /* \"#utility.yul\":443:444   */\n      0x00\n        /* \"#utility.yul\":440:441   */\n      dup1\n        /* \"#utility.yul\":433:445   */\n      revert\n        /* \"#utility.yul\":457:574   */\n    tag_50:\n        /* \"#utility.yul\":566:567   */\n      0x00\n        /* \"#utility.yul\":563:564   */\n      dup1\n        /* \"#utility.yul\":556:568   */\n      revert\n        /* \"#utility.yul\":580:682   */\n    tag_51:\n        /* \"#utility.yul\":621:627   */\n      0x00\n        /* \"#utility.yul\":672:674   */\n      0x1f\n        /* \"#utility.yul\":668:675   */\n      not\n        /* \"#utility.yul\":663:665   */\n      0x1f\n        /* \"#utility.yul\":656:661   */\n      dup4\n        /* \"#utility.yul\":652:666   */\n      add\n        /* \"#utility.yul\":648:676   */\n      and\n        /* \"#utility.yul\":638:676   */\n      swap1\n      pop\n        /* \"#utility.yul\":580:682   */\n      swap2\n      swap1\n      pop\n      jump\t// out\n        /* \"#utility.yul\":688:868   */\n    tag_52:\n        /* \"#utility.yul\":736:813   */\n      0x4e487b7100000000000000000000000000000000000000000000000000000000\n        /* \"#utility.yul\":733:734   */\n      0x00\n        /* \"#utility.yul\":726:814   */\n      mstore\n        /* \"#utility.yul\":833:837   */\n      0x41\n        /* \"#utility.yul\":830:831   */\n      0x04\n        /* \"#utility.yul\":823:838   */\n      mstore\n        /* \"#utility.yul\":857:861   */\n      0x24\n        /* \"#utility.yul\":854:855   */\n      0x00\n        /* \"#utility.yul\":847:862   */\n      revert\n        /* \"#utility.yul\":874:1155   */\n    tag_53:\n        /* \"#utility.yul\":957:984   */\n      tag_95\n        /* \"#utility.yul\":979:983   */\n      dup3\n        /* \"#utility.yul\":957:984   */\n      tag_51\n      jump\t// in\n    tag_95:\n        /* \"#utility.yul\":949:955   */\n      dup2\n        /* \"#utility.yul\":945:985   */\n      add\n        /* \"#utility.yul\":1087:1093   */\n      dup2\n        /* \"#utility.yul\":1075:1085   */\n      dup2\n        /* \"#utility.yul\":1072:1094   */\n      lt\n        /* \"#utility.yul\":1051:1069   */\n      0xffffffffffffffff\n        /* \"#utility.yul\":1039:1049   */\n      dup3\n        /* \"#utility.yul\":1036:1070   */\n      gt\n        /* \"#utility.yul\":1033:1095   */\n      or\n        /* \"#utility.yul\":1030:1118   */\n      iszero\n      tag_96\n      jumpi\n        /* \"#utility.yul\":1098:1116   */\n      tag_97\n      tag_52\n      jump\t// in\n    tag_97:\n        /* \"#utility.yul\":1030:1118   */\n    tag_96:\n        /* \"#utility.yul\":1138:1148   */\n      dup1\n        /* \"#utility.yul\":1134:1136   */\n      0x40\n        /* \"#utility.yul\":1127:1149   */\n      mstore\n        /* \"#utility.yul\":917:1155   */\n      pop\n        /* \"#utility.yul\":874:1155   */\n      pop\n      pop\n      jump\t// out\n        /* \"#utility.yul\":1161:1290   */\n    tag_54:\n        /* \"#utility.yul\":1195:1201   */\n      0x00\n        /* \"#utility.yul\":1222:1242   */\n      tag_99\n      tag_46\n      jump\t// in\n    tag_99:\n        /* \"#utility.yul\":1212:1242   */\n      swap1\n      pop\n        /* \"#utility.yul\":1251:1284   */\n      tag_100\n        /* \"#utility.yul\":1279:1283   */\n      dup3\n        /* \"#utility.yul\":1271:1277   */\n      dup3\n        /* \"#utility.yul\":1251:1284   */\n      tag_53\n      jump\t// in\n    tag_100:\n        /* \"#utility.yul\":1161:1290   */\n      swap2\n      swap1\n      pop\n      jump\t// out\n        /* \"#utility.yul\":1296:1604   */\n    tag_55:\n        /* \"#utility.yul\":1358:1362   */\n      0x00\n        /* \"#utility.yul\":1448:1466   */\n      0xffffffffffffffff\n        /* \"#utility.yul\":1440:1446   */\n      dup3\n        /* \"#utility.yul\":1437:1467   */\n      gt\n        /* \"#utility.yul\":1434:1490   */\n      iszero\n      tag_102\n      jumpi\n        /* \"#utility.yul\":1470:1488   */\n      tag_103\n      tag_52\n      jump\t// in\n    tag_103:\n        /* \"#utility.yul\":1434:1490   */\n    tag_102:\n        /* \"#utility.yul\":1508:1537   */\n      tag_104\n        /* \"#utility.yul\":1530:1536   */\n      dup3\n        /* \"#utility.yul\":1508:1537   */\n      tag_51\n      jump\t// in\n    tag_104:\n        /* \"#utility.yul\":1500:1537   */\n      swap1\n      pop\n        /* \"#utility.yul\":1592:1596   */\n      0x20\n        /* \"#utility.yul\":1586:1590   */\n      dup2\n        /* \"#utility.yul\":1582:1597   */\n      add\n        /* \"#utility.yul\":1574:1597   */\n      swap1\n      pop\n        /* \"#utility.yul\":1296:1604   */\n      swap2\n      swap1\n      pop\n      jump\t// out\n        /* \"#utility.yul\":1610:1758   */\n    tag_56:\n        /* \"#utility.yul\":1708:1714   */\n      dup3\n        /* \"#utility.yul\":1703:1706   */\n      dup2\n        /* \"#utility.yul\":1698:1701   */\n      dup4\n        /* \"#utility.yul\":1685:1715   */\n      calldatacopy\n        /* \"#utility.yul\":1749:1750   */\n      0x00\n        /* \"#utility.yul\":1740:1746   */\n      dup4\n        /* \"#utility.yul\":1735:1738   */\n      dup4\n        /* \"#utility.yul\":1731:1747   */\n      add\n        /* \"#utility.yul\":1724:1751   */\n      mstore\n        /* \"#utility.yul\":1610:1758   */\n      pop\n      pop\n      pop\n      jump\t// out\n        /* \"#utility.yul\":1764:2189   */\n    tag_57:\n        /* \"#utility.yul\":1842:1847   */\n      0x00\n        /* \"#utility.yul\":1867:1933   */\n      tag_107\n        /* \"#utility.yul\":1883:1932   */\n      tag_108\n        /* \"#utility.yul\":1925:1931   */\n      dup5\n        /* \"#utility.yul\":1883:1932   */\n      tag_55\n      jump\t// in\n    tag_108:\n        /* \"#utility.yul\":1867:1933   */\n      tag_54\n      jump\t// in\n    tag_107:\n        /* \"#utility.yul\":1858:1933   */\n      swap1\n      pop\n        /* \"#utility.yul\":1956:1962   */\n      dup3\n        /* \"#utility.yul\":1949:1954   */\n      dup2\n        /* \"#utility.yul\":1942:1963   */\n      mstore\n        /* \"#utility.yul\":1994:1998   */\n      0x20\n        /* \"#utility.yul\":1987:1992   */\n      dup2\n        /* \"#utility.yul\":1983:1999   */\n      add\n        /* \"#utility.yul\":2032:2035   */\n      dup5\n        /* \"#utility.yul\":2023:2029   */\n      dup5\n        /* \"#utility.yul\":2018:2021   */\n      dup5\n        /* \"#utility.yul\":2014:2030   */\n      add\n        /* \"#utility.yul\":2011:2036   */\n      gt\n        /* \"#utility.yul\":2008:2120   */\n      iszero\n      tag_109\n      jumpi\n        /* \"#utility.yul\":2039:2118   */\n      tag_110\n      tag_50\n      jump\t// in\n    tag_110:\n        /* \"#utility.yul\":2008:2120   */\n    tag_109:\n        /* \"#utility.yul\":2129:2183   */\n      tag_111\n        /* \"#utility.yul\":2176:2182   */\n      dup5\n        /* \"#utility.yul\":2171:2174   */\n      dup3\n        /* \"#utility.yul\":2166:2169   */\n      dup6\n        /* \"#utility.yul\":2129:2183   */\n      tag_56\n      jump\t// in\n    tag_111:\n        /* \"#utility.yul\":1848:2189   */\n      pop\n        /* \"#utility.yul\":1764:2189   */\n      swap4\n      swap3\n      pop\n      pop\n      pop\n      jump\t// out\n        /* \"#utility.yul\":2209:2549   */\n    tag_58:\n        /* \"#utility.yul\":2265:2270   */\n      0x00\n        /* \"#utility.yul\":2314:2317   */\n      dup3\n        /* \"#utility.yul\":2307:2311   */\n      0x1f\n        /* \"#utility.yul\":2299:2305   */\n      dup4\n        /* \"#utility.yul\":2295:2312   */\n      add\n        /* \"#utility.yul\":2291:2318   */\n      slt\n        /* \"#utility.yul\":2281:2403   */\n      tag_113\n      jumpi\n        /* \"#utility.yul\":2322:2401   */\n      tag_114\n      tag_49\n      jump\t// in\n    tag_114:\n        /* \"#utility.yul\":2281:2403   */\n    tag_113:\n        /* \"#utility.yul\":2439:2445   */\n      dup2\n        /* \"#utility.yul\":2426:2446   */\n      calldataload\n        /* \"#utility.yul\":2464:2543   */\n      tag_115\n        /* \"#utility.yul\":2539:2542   */\n      dup5\n        /* \"#utility.yul\":2531:2537   */\n      dup3\n        /* \"#utility.yul\":2524:2528   */\n      0x20\n        /* \"#utility.yul\":2516:2522   */\n      dup7\n        /* \"#utility.yul\":2512:2529   */\n      add\n        /* \"#utility.yul\":2464:2543   */\n      tag_57\n      jump\t// in\n    tag_115:\n        /* \"#utility.yul\":2455:2543   */\n      swap2\n      pop\n        /* \"#utility.yul\":2271:2549   */\n      pop\n        /* \"#utility.yul\":2209:2549   */\n      swap3\n      swap2\n      pop\n      pop\n      jump\t// out\n        /* \"#utility.yul\":2555:3389   */\n    tag_7:\n        /* \"#utility.yul\":2643:2649   */\n      0x00\n        /* \"#utility.yul\":2651:2657   */\n      dup1\n        /* \"#utility.yul\":2700:2702   */\n      0x40\n        /* \"#utility.yul\":2688:2697   */\n      dup4\n        /* \"#utility.yul\":2679:2686   */\n      dup6\n        /* \"#utility.yul\":2675:2698   */\n      sub\n        /* \"#utility.yul\":2671:2703   */\n      slt\n        /* \"#utility.yul\":2668:2787   */\n      iszero\n      tag_117\n      jumpi\n        /* \"#utility.yul\":2706:2785   */\n      tag_118\n      tag_47\n      jump\t// in\n    tag_118:\n        /* \"#utility.yul\":2668:2787   */\n    tag_117:\n        /* \"#utility.yul\":2854:2855   */\n      0x00\n        /* \"#utility.yul\":2843:2852   */\n      dup4\n        /* \"#utility.yul\":2839:2856   */\n      add\n        /* \"#utility.yul\":2826:2857   */\n      calldataload\n        /* \"#utility.yul\":2884:2902   */\n      0xffffffffffffffff\n        /* \"#utility.yul\":2876:2882   */\n      dup2\n        /* \"#utility.yul\":2873:2903   */\n      gt\n        /* \"#utility.yul\":2870:2987   */\n      iszero\n      tag_119\n      jumpi\n        /* \"#utility.yul\":2906:2985   */\n      tag_120\n      tag_48\n      jump\t// in\n    tag_120:\n        /* \"#utility.yul\":2870:2987   */\n    tag_119:\n        /* \"#utility.yul\":3011:3074   */\n      tag_121\n        /* \"#utility.yul\":3066:3073   */\n      dup6\n        /* \"#utility.yul\":3057:3063   */\n      dup3\n        /* \"#utility.yul\":3046:3055   */\n      dup7\n        /* \"#utility.yul\":3042:3064   */\n      add\n        /* \"#utility.yul\":3011:3074   */\n      tag_58\n      jump\t// in\n    tag_121:\n        /* \"#utility.yul\":3001:3074   */\n      swap3\n      pop\n        /* \"#utility.yul\":2797:3084   */\n      pop\n        /* \"#utility.yul\":3151:3153   */\n      0x20\n        /* \"#utility.yul\":3140:3149   */\n      dup4\n        /* \"#utility.yul\":3136:3154   */\n      add\n        /* \"#utility.yul\":3123:3155   */\n      calldataload\n        /* \"#utility.yul\":3182:3200   */\n      0xffffffffffffffff\n        /* \"#utility.yul\":3174:3180   */\n      dup2\n        /* \"#utility.yul\":3171:3201   */\n      gt\n        /* \"#utility.yul\":3168:3285   */\n      iszero\n      tag_122\n      jumpi\n        /* \"#utility.yul\":3204:3283   */\n      tag_123\n      tag_48\n      jump\t// in\n    tag_123:\n        /* \"#utility.yul\":3168:3285   */\n    tag_122:\n        /* \"#utility.yul\":3309:3372   */\n      tag_124\n        /* \"#utility.yul\":3364:3371   */\n      dup6\n        /* \"#utility.yul\":3355:3361   */\n      dup3\n        /* \"#utility.yul\":3344:3353   */\n      dup7\n        /* \"#utility.yul\":3340:3362   */\n      add\n        /* \"#utility.yul\":3309:3372   */\n      tag_58\n      jump\t// in\n    tag_124:\n        /* \"#utility.yul\":3299:3372   */\n      swap2\n      pop\n        /* \"#utility.yul\":3094:3382   */\n      pop\n        /* \"#utility.yul\":2555:3389   */\n      swap3\n      pop\n      swap3\n      swap1\n      pop\n      jump\t// out\n        /* \"#utility.yul\":3395:3904   */\n    tag_11:\n        /* \"#utility.yul\":3464:3470   */\n      0x00\n        /* \"#utility.yul\":3513:3515   */\n      0x20\n        /* \"#utility.yul\":3501:3510   */\n      dup3\n        /* \"#utility.yul\":3492:3499   */\n      dup5\n        /* \"#utility.yul\":3488:3511   */\n      sub\n        /* \"#utility.yul\":3484:3516   */\n      slt\n        /* \"#utility.yul\":3481:3600   */\n      iszero\n      tag_126\n      jumpi\n        /* \"#utility.yul\":3519:3598   */\n      tag_127\n      tag_47\n      jump\t// in\n    tag_127:\n        /* \"#utility.yul\":3481:3600   */\n    tag_126:\n        /* \"#utility.yul\":3667:3668   */\n      0x00\n        /* \"#utility.yul\":3656:3665   */\n      dup3\n        /* \"#utility.yul\":3652:3669   */\n      add\n        /* \"#utility.yul\":3639:3670   */\n      calldataload\n        /* \"#utility.yul\":3697:3715   */\n      0xffffffffffffffff\n        /* \"#utility.yul\":3689:3695   */\n      dup2\n        /* \"#utility.yul\":3686:3716   */\n      gt\n        /* \"#utility.yul\":3683:3800   */\n      iszero\n      tag_128\n      jumpi\n        /* \"#utility.yul\":3719:3798   */\n      tag_129\n      tag_48\n      jump\t// in\n    tag_129:\n        /* \"#utility.yul\":3683:3800   */\n    tag_128:\n        /* \"#utility.yul\":3824:3887   */\n      tag_130\n        /* \"#utility.yul\":3879:3886   */\n      dup5\n        /* \"#utility.yul\":3870:3876   */\n      dup3\n        /* \"#utility.yul\":3859:3868   */\n      dup6\n        /* \"#utility.yul\":3855:3877   */\n      add\n        /* \"#utility.yul\":3824:3887   */\n      tag_58\n      jump\t// in\n    tag_130:\n        /* \"#utility.yul\":3814:3887   */\n      swap2\n      pop\n        /* \"#utility.yul\":3610:3897   */\n      pop\n        /* \"#utility.yul\":3395:3904   */\n      swap3\n      swap2\n      pop\n      pop\n      jump\t// out\n        /* \"#utility.yul\":3910:4009   */\n    tag_59:\n        /* \"#utility.yul\":3962:3968   */\n      0x00\n        /* \"#utility.yul\":3996:4001   */\n      dup2\n        /* \"#utility.yul\":3990:4002   */\n      mload\n        /* \"#utility.yul\":3980:4002   */\n      swap1\n      pop\n        /* \"#utility.yul\":3910:4009   */\n      swap2\n      swap1\n      pop\n      jump\t// out\n        /* \"#utility.yul\":4015:4184   */\n    tag_60:\n        /* \"#utility.yul\":4099:4110   */\n      0x00\n        /* \"#utility.yul\":4133:4139   */\n      dup3\n        /* \"#utility.yul\":4128:4131   */\n      dup3\n        /* \"#utility.yul\":4121:4140   */\n      mstore\n        /* \"#utility.yul\":4173:4177   */\n      0x20\n        /* \"#utility.yul\":4168:4171   */\n      dup3\n        /* \"#utility.yul\":4164:4178   */\n      add\n        /* \"#utility.yul\":4149:4178   */\n      swap1\n      pop\n        /* \"#utility.yul\":4015:4184   */\n      swap3\n      swap2\n      pop\n      pop\n      jump\t// out\n        /* \"#utility.yul\":4190:4438   */\n    tag_61:\n        /* \"#utility.yul\":4272:4273   */\n      0x00\n        /* \"#utility.yul\":4282:4395   */\n    tag_134:\n        /* \"#utility.yul\":4296:4302   */\n      dup4\n        /* \"#utility.yul\":4293:4294   */\n      dup2\n        /* \"#utility.yul\":4290:4303   */\n      lt\n        /* \"#utility.yul\":4282:4395   */\n      iszero\n      tag_136\n      jumpi\n        /* \"#utility.yul\":4381:4382   */\n      dup1\n        /* \"#utility.yul\":4376:4379   */\n      dup3\n        /* \"#utility.yul\":4372:4383   */\n      add\n        /* \"#utility.yul\":4366:4384   */\n      mload\n        /* \"#utility.yul\":4362:4363   */\n      dup2\n        /* \"#utility.yul\":4357:4360   */\n      dup5\n        /* \"#utility.yul\":4353:4364   */\n      add\n        /* \"#utility.yul\":4346:4385   */\n      mstore\n        /* \"#utility.yul\":4318:4320   */\n      0x20\n        /* \"#utility.yul\":4315:4316   */\n      dup2\n        /* \"#utility.yul\":4311:4321   */\n      add\n        /* \"#utility.yul\":4306:4321   */\n      swap1\n      pop\n        /* \"#utility.yul\":4282:4395   */\n      jump(tag_134)\n    tag_136:\n        /* \"#utility.yul\":4429:4430   */\n      0x00\n        /* \"#utility.yul\":4420:4426   */\n      dup5\n        /* \"#utility.yul\":4415:4418   */\n      dup5\n        /* \"#utility.yul\":4411:4427   */\n      add\n        /* \"#utility.yul\":4404:4431   */\n      mstore\n        /* \"#utility.yul\":4252:4438   */\n      pop\n        /* \"#utility.yul\":4190:4438   */\n      pop\n      pop\n      pop\n      jump\t// out\n        /* \"#utility.yul\":4444:4821   */\n    tag_62:\n        /* \"#utility.yul\":4532:4535   */\n      0x00\n        /* \"#utility.yul\":4560:4599   */\n      tag_138\n        /* \"#utility.yul\":4593:4598   */\n      dup3\n        /* \"#utility.yul\":4560:4599   */\n      tag_59\n      jump\t// in\n    tag_138:\n        /* \"#utility.yul\":4615:4686   */\n      tag_139\n        /* \"#utility.yul\":4679:4685   */\n      dup2\n        /* \"#utility.yul\":4674:4677   */\n      dup6\n        /* \"#utility.yul\":4615:4686   */\n      tag_60\n      jump\t// in\n    tag_139:\n        /* \"#utility.yul\":4608:4686   */\n      swap4\n      pop\n        /* \"#utility.yul\":4695:4760   */\n      tag_140\n        /* \"#utility.yul\":4753:4759   */\n      dup2\n        /* \"#utility.yul\":4748:4751   */\n      dup6\n        /* \"#utility.yul\":4741:4745   */\n      0x20\n        /* \"#utility.yul\":4734:4739   */\n      dup7\n        /* \"#utility.yul\":4730:4746   */\n      add\n        /* \"#utility.yul\":4695:4760   */\n      tag_61\n      jump\t// in\n    tag_140:\n        /* \"#utility.yul\":4785:4814   */\n      tag_141\n        /* \"#utility.yul\":4807:4813   */\n      dup2\n        /* \"#utility.yul\":4785:4814   */\n      tag_51\n      jump\t// in\n    tag_141:\n        /* \"#utility.yul\":4780:4783   */\n      dup5\n        /* \"#utility.yul\":4776:4815   */\n      add\n        /* \"#utility.yul\":4769:4815   */\n      swap2\n      pop\n        /* \"#utility.yul\":4536:4821   */\n      pop\n        /* \"#utility.yul\":4444:4821   */\n      swap3\n      swap2\n      pop\n      pop\n      jump\t// out\n        /* \"#utility.yul\":4827:5140   */\n    tag_14:\n        /* \"#utility.yul\":4940:4944   */\n      0x00\n        /* \"#utility.yul\":4978:4980   */\n      0x20\n        /* \"#utility.yul\":4967:4976   */\n      dup3\n        /* \"#utility.yul\":4963:4981   */\n      add\n        /* \"#utility.yul\":4955:4981   */\n      swap1\n      pop\n        /* \"#utility.yul\":5027:5036   */\n      dup2\n        /* \"#utility.yul\":5021:5025   */\n      dup2\n        /* \"#utility.yul\":5017:5037   */\n      sub\n        /* \"#utility.yul\":5013:5014   */\n      0x00\n        /* \"#utility.yul\":5002:5011   */\n      dup4\n        /* \"#utility.yul\":4998:5015   */\n      add\n        /* \"#utility.yul\":4991:5038   */\n      mstore\n        /* \"#utility.yul\":5055:5133   */\n      tag_143\n        /* \"#utility.yul\":5128:5132   */\n      dup2\n        /* \"#utility.yul\":5119:5125   */\n      dup5\n        /* \"#utility.yul\":5055:5133   */\n      tag_62\n      jump\t// in\n    tag_143:\n        /* \"#utility.yul\":5047:5133   */\n      swap1\n      pop\n        /* \"#utility.yul\":4827:5140   */\n      swap3\n      swap2\n      pop\n      pop\n      jump\t// out\n        /* \"#utility.yul\":5146:5294   */\n    tag_63:\n        /* \"#utility.yul\":5248:5259   */\n      0x00\n        /* \"#utility.yul\":5285:5288   */\n      dup2\n        /* \"#utility.yul\":5270:5288   */\n      swap1\n      pop\n        /* \"#utility.yul\":5146:5294   */\n      swap3\n      swap2\n      pop\n      pop\n      jump\t// out\n        /* \"#utility.yul\":5300:5690   */\n    tag_64:\n        /* \"#utility.yul\":5406:5409   */\n      0x00\n        /* \"#utility.yul\":5434:5473   */\n      tag_146\n        /* \"#utility.yul\":5467:5472   */\n      dup3\n        /* \"#utility.yul\":5434:5473   */\n      tag_59\n      jump\t// in\n    tag_146:\n        /* \"#utility.yul\":5489:5578   */\n      tag_147\n        /* \"#utility.yul\":5571:5577   */\n      dup2\n        /* \"#utility.yul\":5566:5569   */\n      dup6\n        /* \"#utility.yul\":5489:5578   */\n      tag_63\n      jump\t// in\n    tag_147:\n        /* \"#utility.yul\":5482:5578   */\n      swap4\n      pop\n        /* \"#utility.yul\":5587:5652   */\n      tag_148\n        /* \"#utility.yul\":5645:5651   */\n      dup2\n        /* \"#utility.yul\":5640:5643   */\n      dup6\n        /* \"#utility.yul\":5633:5637   */\n      0x20\n        /* \"#utility.yul\":5626:5631   */\n      dup7\n        /* \"#utility.yul\":5622:5638   */\n      add\n        /* \"#utility.yul\":5587:5652   */\n      tag_61\n      jump\t// in\n    tag_148:\n        /* \"#utility.yul\":5677:5683   */\n      dup1\n        /* \"#utility.yul\":5672:5675   */\n      dup5\n        /* \"#utility.yul\":5668:5684   */\n      add\n        /* \"#utility.yul\":5661:5684   */\n      swap2\n      pop\n        /* \"#utility.yul\":5410:5690   */\n      pop\n        /* \"#utility.yul\":5300:5690   */\n      swap3\n      swap2\n      pop\n      pop\n      jump\t// out\n        /* \"#utility.yul\":5696:5971   */\n    tag_17:\n        /* \"#utility.yul\":5828:5831   */\n      0x00\n        /* \"#utility.yul\":5850:5945   */\n      tag_150\n        /* \"#utility.yul\":5941:5944   */\n      dup3\n        /* \"#utility.yul\":5932:5938   */\n      dup5\n        /* \"#utility.yul\":5850:5945   */\n      tag_64\n      jump\t// in\n    tag_150:\n        /* \"#utility.yul\":5843:5945   */\n      swap2\n      pop\n        /* \"#utility.yul\":5962:5965   */\n      dup2\n        /* \"#utility.yul\":5955:5965   */\n      swap1\n      pop\n        /* \"#utility.yul\":5696:5971   */\n      swap3\n      swap2\n      pop\n      pop\n      jump\t// out\n        /* \"#utility.yul\":5977:6157   */\n    tag_65:\n        /* \"#utility.yul\":6025:6102   */\n      0x4e487b7100000000000000000000000000000000000000000000000000000000\n        /* \"#utility.yul\":6022:6023   */\n      0x00\n        /* \"#utility.yul\":6015:6103   */\n      mstore\n        /* \"#utility.yul\":6122:6126   */\n      0x22\n        /* \"#utility.yul\":6119:6120   */\n      0x04\n        /* \"#utility.yul\":6112:6127   */\n      mstore\n        /* \"#utility.yul\":6146:6150   */\n      0x24\n        /* \"#utility.yul\":6143:6144   */\n      0x00\n        /* \"#utility.yul\":6136:6151   */\n      revert\n        /* \"#utility.yul\":6163:6483   */\n    tag_19:\n        /* \"#utility.yul\":6207:6213   */\n      0x00\n        /* \"#utility.yul\":6244:6245   */\n      0x02\n        /* \"#utility.yul\":6238:6242   */\n      dup3\n        /* \"#utility.yul\":6234:6246   */\n      div\n        /* \"#utility.yul\":6224:6246   */\n      swap1\n      pop\n        /* \"#utility.yul\":6291:6292   */\n      0x01\n        /* \"#utility.yul\":6285:6289   */\n      dup3\n        /* \"#utility.yul\":6281:6293   */\n      and\n        /* \"#utility.yul\":6312:6330   */\n      dup1\n        /* \"#utility.yul\":6302:6383   */\n      tag_153\n      jumpi\n        /* \"#utility.yul\":6368:6372   */\n      0x7f\n        /* \"#utility.yul\":6360:6366   */\n      dup3\n        /* \"#utility.yul\":6356:6373   */\n      and\n        /* \"#utility.yul\":6346:6373   */\n      swap2\n      pop\n        /* \"#utility.yul\":6302:6383   */\n    tag_153:\n        /* \"#utility.yul\":6430:6432   */\n      0x20\n        /* \"#utility.yul\":6422:6428   */\n      dup3\n        /* \"#utility.yul\":6419:6433   */\n      lt\n        /* \"#utility.yul\":6399:6417   */\n      dup2\n        /* \"#utility.yul\":6396:6434   */\n      sub\n        /* \"#utility.yul\":6393:6477   */\n      tag_154\n      jumpi\n        /* \"#utility.yul\":6449:6467   */\n      tag_155\n      tag_65\n      jump\t// in\n    tag_155:\n        /* \"#utility.yul\":6393:6477   */\n    tag_154:\n        /* \"#utility.yul\":6214:6483   */\n      pop\n        /* \"#utility.yul\":6163:6483   */\n      swap2\n      swap1\n      pop\n      jump\t// out\n        /* \"#utility.yul\":6489:6657   */\n    tag_66:\n        /* \"#utility.yul\":6629:6649   */\n      0x44494420616c7265616479206578697374730000000000000000000000000000\n        /* \"#utility.yul\":6625:6626   */\n      0x00\n        /* \"#utility.yul\":6617:6623   */\n      dup3\n        /* \"#utility.yul\":6613:6627   */\n      add\n        /* \"#utility.yul\":6606:6650   */\n      mstore\n        /* \"#utility.yul\":6489:6657   */\n      pop\n      jump\t// out\n        /* \"#utility.yul\":6663:7029   */\n    tag_67:\n        /* \"#utility.yul\":6805:6808   */\n      0x00\n        /* \"#utility.yul\":6826:6893   */\n      tag_158\n        /* \"#utility.yul\":6890:6892   */\n      0x12\n        /* \"#utility.yul\":6885:6888   */\n      dup4\n        /* \"#utility.yul\":6826:6893   */\n      tag_60\n      jump\t// in\n    tag_158:\n        /* \"#utility.yul\":6819:6893   */\n      swap2\n      pop\n        /* \"#utility.yul\":6902:6995   */\n      tag_159\n        /* \"#utility.yul\":6991:6994   */\n      dup3\n        /* \"#utility.yul\":6902:6995   */\n      tag_66\n      jump\t// in\n    tag_159:\n        /* \"#utility.yul\":7020:7022   */\n      0x20\n        /* \"#utility.yul\":7015:7018   */\n      dup3\n        /* \"#utility.yul\":7011:7023   */\n      add\n        /* \"#utility.yul\":7004:7023   */\n      swap1\n      pop\n        /* \"#utility.yul\":6663:7029   */\n      swap2\n      swap1\n      pop\n      jump\t// out\n        /* \"#utility.yul\":7035:7454   */\n    tag_22:\n        /* \"#utility.yul\":7201:7205   */\n      0x00\n        /* \"#utility.yul\":7239:7241   */\n      0x20\n        /* \"#utility.yul\":7228:7237   */\n      dup3\n        /* \"#utility.yul\":7224:7242   */\n      add\n        /* \"#utility.yul\":7216:7242   */\n      swap1\n      pop\n        /* \"#utility.yul\":7288:7297   */\n      dup2\n        /* \"#utility.yul\":7282:7286   */\n      dup2\n        /* \"#utility.yul\":7278:7298   */\n      sub\n        /* \"#utility.yul\":7274:7275   */\n      0x00\n        /* \"#utility.yul\":7263:7272   */\n      dup4\n        /* \"#utility.yul\":7259:7276   */\n      add\n        /* \"#utility.yul\":7252:7299   */\n      mstore\n        /* \"#utility.yul\":7316:7447   */\n      tag_161\n        /* \"#utility.yul\":7442:7446   */\n      dup2\n        /* \"#utility.yul\":7316:7447   */\n      tag_67\n      jump\t// in\n    tag_161:\n        /* \"#utility.yul\":7308:7447   */\n      swap1\n      pop\n        /* \"#utility.yul\":7035:7454   */\n      swap2\n      swap1\n      pop\n      jump\t// out\n        /* \"#utility.yul\":7460:7601   */\n    tag_68:\n        /* \"#utility.yul\":7509:7513   */\n      0x00\n        /* \"#utility.yul\":7532:7535   */\n      dup2\n        /* \"#utility.yul\":7524:7535   */\n      swap1\n      pop\n        /* \"#utility.yul\":7555:7558   */\n      dup2\n        /* \"#utility.yul\":7552:7553   */\n      0x00\n        /* \"#utility.yul\":7545:7559   */\n      mstore\n        /* \"#utility.yul\":7589:7593   */\n      0x20\n        /* \"#utility.yul\":7586:7587   */\n      0x00\n        /* \"#utility.yul\":7576:7594   */\n      keccak256\n        /* \"#utility.yul\":7568:7594   */\n      swap1\n      pop\n        /* \"#utility.yul\":7460:7601   */\n      swap2\n      swap1\n      pop\n      jump\t// out\n        /* \"#utility.yul\":7607:7700   */\n    tag_69:\n        /* \"#utility.yul\":7644:7650   */\n      0x00\n        /* \"#utility.yul\":7691:7693   */\n      0x20\n        /* \"#utility.yul\":7686:7688   */\n      0x1f\n        /* \"#utility.yul\":7679:7684   */\n      dup4\n        /* \"#utility.yul\":7675:7689   */\n      add\n        /* \"#utility.yul\":7671:7694   */\n      div\n        /* \"#utility.yul\":7661:7694   */\n      swap1\n      pop\n        /* \"#utility.yul\":7607:7700   */\n      swap2\n      swap1\n      pop\n      jump\t// out\n        /* \"#utility.yul\":7706:7813   */\n    tag_70:\n        /* \"#utility.yul\":7750:7758   */\n      0x00\n        /* \"#utility.yul\":7800:7805   */\n      dup3\n        /* \"#utility.yul\":7794:7798   */\n      dup3\n        /* \"#utility.yul\":7790:7806   */\n      shl\n        /* \"#utility.yul\":7769:7806   */\n      swap1\n      pop\n        /* \"#utility.yul\":7706:7813   */\n      swap3\n      swap2\n      pop\n      pop\n      jump\t// out\n        /* \"#utility.yul\":7819:8212   */\n    tag_71:\n        /* \"#utility.yul\":7888:7894   */\n      0x00\n        /* \"#utility.yul\":7938:7939   */\n      0x08\n        /* \"#utility.yul\":7926:7936   */\n      dup4\n        /* \"#utility.yul\":7922:7940   */\n      mul\n        /* \"#utility.yul\":7961:8058   */\n      tag_166\n        /* \"#utility.yul\":7991:8057   */\n      0xffffffffffffffffffffffffffffffffffffffffffffffffffffffffffffffff\n        /* \"#utility.yul\":7980:7989   */\n      dup3\n        /* \"#utility.yul\":7961:8058   */\n      tag_70\n      jump\t// in\n    tag_166:\n        /* \"#utility.yul\":8079:8118   */\n      tag_167\n        /* \"#utility.yul\":8109:8117   */\n      dup7\n        /* \"#utility.yul\":8098:8107   */\n      dup4\n        /* \"#utility.yul\":8079:8118   */\n      tag_70\n      jump\t// in\n    tag_167:\n        /* \"#utility.yul\":8067:8118   */\n      swap6\n      pop\n        /* \"#utility.yul\":8151:8155   */\n      dup1\n        /* \"#utility.yul\":8147:8156   */\n      not\n        /* \"#utility.yul\":8140:8145   */\n      dup5\n        /* \"#utility.yul\":8136:8157   */\n      and\n        /* \"#utility.yul\":8127:8157   */\n      swap4\n      pop\n        /* \"#utility.yul\":8200:8204   */\n      dup1\n        /* \"#utility.yul\":8190:8198   */\n      dup7\n        /* \"#utility.yul\":8186:8205   */\n      and\n        /* \"#utility.yul\":8179:8184   */\n      dup5\n        /* \"#utility.yul\":8176:8206   */\n      or\n        /* \"#utility.yul\":8166:8206   */\n      swap3\n      pop\n        /* \"#utility.yul\":7895:8212   */\n      pop\n      pop\n        /* \"#utility.yul\":7819:8212   */\n      swap4\n      swap3\n      pop\n      pop\n      pop\n      jump\t// out\n        /* \"#utility.yul\":8218:8295   */\n    tag_72:\n        /* \"#utility.yul\":8255:8262   */\n      0x00\n        /* \"#utility.yul\":8284:8289   */\n      dup2\n        /* \"#utility.yul\":8273:8289   */\n      swap1\n      pop\n        /* \"#utility.yul\":8218:8295   */\n      swap2\n      swap1\n      pop\n      jump\t// out\n        /* \"#utility.yul\":8301:8361   */\n    tag_73:\n        /* \"#utility.yul\":8329:8332   */\n      0x00\n        /* \"#utility.yul\":8350:8355   */\n      dup2\n        /* \"#utility.yul\":8343:8355   */\n      swap1\n      pop\n        /* \"#utility.yul\":8301:8361   */\n      swap2\n      swap1\n      pop\n      jump\t// out\n        /* \"#utility.yul\":8367:8509   */\n    tag_74:\n        /* \"#utility.yul\":8417:8426   */\n      0x00\n        /* \"#utility.yul\":8450:8503   */\n      tag_171\n        /* \"#utility.yul\":8468:8502   */\n      tag_172\n        /* \"#utility.yul\":8477:8501   */\n      tag_173\n        /* \"#utility.yul\":8495:8500   */\n      dup5\n        /* \"#utility.yul\":8477:8501   */\n      tag_72\n      jump\t// in\n    tag_173:\n        /* \"#utility.yul\":8468:8502   */\n      tag_73\n      jump\t// in\n    tag_172:\n        /* \"#utility.yul\":8450:8503   */\n      tag_72\n      jump\t// in\n    tag_171:\n        /* \"#utility.yul\":8437:8503   */\n      swap1\n      pop\n        /* \"#utility.yul\":8367:8509   */\n      swap2\n      swap1\n      pop\n      jump\t// out\n        /* \"#utility.yul\":8515:8590   */\n    tag_75:\n        /* \"#utility.yul\":8558:8561   */\n      0x00\n        /* \"#utility.yul\":8579:8584   */\n      dup2\n        /* \"#utility.yul\":8572:8584   */\n      swap1\n      pop\n        /* \"#utility.yul\":8515:8590   */\n      swap2\n      swap1\n      pop\n      jump\t// out\n        /* \"#utility.yul\":8596:8865   */\n    tag_76:\n        /* \"#utility.yul\":8706:8745   */\n      tag_176\n        /* \"#utility.yul\":8737:8744   */\n      dup4\n        /* \"#utility.yul\":8706:8745   */\n      tag_74\n      jump\t// in\n    tag_176:\n        /* \"#utility.yul\":8767:8858   */\n      tag_177\n        /* \"#utility.yul\":8816:8857   */\n      tag_178\n        /* \"#utility.yul\":8840:8856   */\n      dup3\n        /* \"#utility.yul\":8816:8857   */\n      tag_75\n      jump\t// in\n    tag_178:\n        /* \"#utility.yul\":8808:8814   */\n      dup5\n        /* \"#utility.yul\":8801:8805   */\n      dup5\n        /* \"#utility.yul\":8795:8806   */\n      sload\n        /* \"#utility.yul\":8767:8858   */\n      tag_71\n      jump\t// in\n    tag_177:\n        /* \"#utility.yul\":8761:8765   */\n      dup3\n        /* \"#utility.yul\":8754:8859   */\n      sstore\n        /* \"#utility.yul\":8672:8865   */\n      pop\n        /* \"#utility.yul\":8596:8865   */\n      pop\n      pop\n      pop\n      jump\t// out\n        /* \"#utility.yul\":8871:8944   */\n    tag_77:\n        /* \"#utility.yul\":8916:8919   */\n      0x00\n        /* \"#utility.yul\":8871:8944   */\n      swap1\n      jump\t// out\n        /* \"#utility.yul\":8950:9139   */\n    tag_78:\n        /* \"#utility.yul\":9027:9059   */\n      tag_181\n      tag_77\n      jump\t// in\n    tag_181:\n        /* \"#utility.yul\":9068:9133   */\n      tag_182\n        /* \"#utility.yul\":9126:9132   */\n      dup2\n        /* \"#utility.yul\":9118:9124   */\n      dup5\n        /* \"#utility.yul\":9112:9116   */\n      dup5\n        /* \"#utility.yul\":9068:9133   */\n      tag_76\n      jump\t// in\n    tag_182:\n        /* \"#utility.yul\":9003:9139   */\n      pop\n        /* \"#utility.yul\":8950:9139   */\n      pop\n      pop\n      jump\t// out\n        /* \"#utility.yul\":9145:9331   */\n    tag_79:\n        /* \"#utility.yul\":9205:9325   */\n    tag_184:\n        /* \"#utility.yul\":9222:9225   */\n      dup2\n        /* \"#utility.yul\":9215:9220   */\n      dup2\n        /* \"#utility.yul\":9212:9226   */\n      lt\n        /* \"#utility.yul\":9205:9325   */\n      iszero\n      tag_186\n      jumpi\n        /* \"#utility.yul\":9276:9315   */\n      tag_187\n        /* \"#utility.yul\":9313:9314   */\n      0x00\n        /* \"#utility.yul\":9306:9311   */\n      dup3\n        /* \"#utility.yul\":9276:9315   */\n      tag_78\n      jump\t// in\n    tag_187:\n        /* \"#utility.yul\":9249:9250   */\n      0x01\n        /* \"#utility.yul\":9242:9247   */\n      dup2\n        /* \"#utility.yul\":9238:9251   */\n      add\n        /* \"#utility.yul\":9229:9251   */\n      swap1\n      pop\n        /* \"#utility.yul\":9205:9325   */\n      jump(tag_184)\n    tag_186:\n        /* \"#utility.yul\":9145:9331   */\n      pop\n      pop\n      jump\t// out\n        /* \"#utility.yul\":9337:9880   */\n    tag_80:\n        /* \"#utility.yul\":9438:9440   */\n      0x1f\n        /* \"#utility.yul\":9433:9436   */\n      dup3\n        /* \"#utility.yul\":9430:9441   */\n      gt\n        /* \"#utility.yul\":9427:9873   */\n      iszero\n      tag_189\n      jumpi\n        /* \"#utility.yul\":9472:9510   */\n      tag_190\n        /* \"#utility.yul\":9504:9509   */\n      dup2\n        /* \"#utility.yul\":9472:9510   */\n      tag_68\n      jump\t// in\n    tag_190:\n        /* \"#utility.yul\":9556:9585   */\n      tag_191\n        /* \"#utility.yul\":9574:9584   */\n      dup5\n        /* \"#utility.yul\":9556:9585   */\n      tag_69\n      jump\t// in\n    tag_191:\n        /* \"#utility.yul\":9546:9554   */\n      dup2\n        /* \"#utility.yul\":9542:9586   */\n      add\n        /* \"#utility.yul\":9739:9741   */\n      0x20\n        /* \"#utility.yul\":9727:9737   */\n      dup6\n        /* \"#utility.yul\":9724:9742   */\n      lt\n        /* \"#utility.yul\":9721:9770   */\n      iszero\n      tag_192\n      jumpi\n        /* \"#utility.yul\":9760:9768   */\n      dup2\n        /* \"#utility.yul\":9745:9768   */\n      swap1\n      pop\n        /* \"#utility.yul\":9721:9770   */\n    tag_192:\n        /* \"#utility.yul\":9783:9863   */\n      tag_193\n        /* \"#utility.yul\":9839:9861   */\n      tag_194\n        /* \"#utility.yul\":9857:9860   */\n      dup6\n        /* \"#utility.yul\":9839:9861   */\n      tag_69\n      jump\t// in\n    tag_194:\n        /* \"#utility.yul\":9829:9837   */\n      dup4\n        /* \"#utility.yul\":9825:9862   */\n      add\n        /* \"#utility.yul\":9812:9823   */\n      dup3\n        /* \"#utility.yul\":9783:9863   */\n      tag_79\n      jump\t// in\n    tag_193:\n        /* \"#utility.yul\":9442:9873   */\n      pop\n      pop\n        /* \"#utility.yul\":9427:9873   */\n    tag_189:\n        /* \"#utility.yul\":9337:9880   */\n      pop\n      pop\n      pop\n      jump\t// out\n        /* \"#utility.yul\":9886:10003   */\n    tag_81:\n        /* \"#utility.yul\":9940:9948   */\n      0x00\n        /* \"#utility.yul\":9990:9995   */\n      dup3\n        /* \"#utility.yul\":9984:9988   */\n      dup3\n        /* \"#utility.yul\":9980:9996   */\n      shr\n        /* \"#utility.yul\":9959:9996   */\n      swap1\n      pop\n        /* \"#utility.yul\":9886:10003   */\n      swap3\n      swap2\n      pop\n      pop\n      jump\t// out\n        /* \"#utility.yul\":10009:10178   */\n    tag_82:\n        /* \"#utility.yul\":10053:10059   */\n      0x00\n        /* \"#utility.yul\":10086:10137   */\n      tag_197\n        /* \"#utility.yul\":10134:10135   */\n      0x00\n        /* \"#utility.yul\":10130:10136   */\n      not\n        /* \"#utility.yul\":10122:10127   */\n      dup5\n        /* \"#utility.yul\":10119:10120   */\n      0x08\n        /* \"#utility.yul\":10115:10128   */\n      mul\n        /* \"#utility.yul\":10086:10137   */\n      tag_81\n      jump\t// in\n    tag_197:\n        /* \"#utility.yul\":10082:10138   */\n      not\n        /* \"#utility.yul\":10167:10171   */\n      dup1\n        /* \"#utility.yul\":10161:10165   */\n      dup4\n        /* \"#utility.yul\":10157:10172   */\n      and\n        /* \"#utility.yul\":10147:10172   */\n      swap2\n      pop\n        /* \"#utility.yul\":10060:10178   */\n      pop\n        /* \"#utility.yul\":10009:10178   */\n      swap3\n      swap2\n      pop\n      pop\n      jump\t// out\n        /* \"#utility.yul\":10183:10478   */\n    tag_83:\n        /* \"#utility.yul\":10259:10263   */\n      0x00\n        /* \"#utility.yul\":10405:10434   */\n      tag_199\n        /* \"#utility.yul\":10430:10433   */\n      dup4\n        /* \"#utility.yul\":10424:10428   */\n      dup4\n        /* \"#utility.yul\":10405:10434   */\n      tag_82\n      jump\t// in\n    tag_199:\n        /* \"#utility.yul\":10397:10434   */\n      swap2\n      pop\n        /* \"#utility.yul\":10467:10470   */\n      dup3\n        /* \"#utility.yul\":10464:10465   */\n      0x02\n        /* \"#utility.yul\":10460:10471   */\n      mul\n        /* \"#utility.yul\":10454:10458   */\n      dup3\n        /* \"#utility.yul\":10451:10472   */\n      or\n        /* \"#utility.yul\":10443:10472   */\n      swap1\n      pop\n        /* \"#utility.yul\":10183:10478   */\n      swap3\n      swap2\n      pop\n      pop\n      jump\t// out\n        /* \"#utility.yul\":10483:11878   */\n    tag_25:\n        /* \"#utility.yul\":10600:10637   */\n      tag_201\n        /* \"#utility.yul\":10633:10636   */\n      dup3\n        /* \"#utility.yul\":10600:10637   */\n      tag_59\n      jump\t// in\n    tag_201:\n        /* \"#utility.yul\":10702:10720   */\n      0xffffffffffffffff\n        /* \"#utility.yul\":10694:10700   */\n      dup2\n        /* \"#utility.yul\":10691:10721   */\n      gt\n        /* \"#utility.yul\":10688:10744   */\n      iszero\n      tag_202\n      jumpi\n        /* \"#utility.yul\":10724:10742   */\n      tag_203\n      tag_52\n      jump\t// in\n    tag_203:\n        /* \"#utility.yul\":10688:10744   */\n    tag_202:\n        /* \"#utility.yul\":10768:10806   */\n      tag_204\n        /* \"#utility.yul\":10800:10804   */\n      dup3\n        /* \"#utility.yul\":10794:10805   */\n      sload\n        /* \"#utility.yul\":10768:10806   */\n      tag_19\n      jump\t// in\n    tag_204:\n        /* \"#utility.yul\":10853:10920   */\n      tag_205\n        /* \"#utility.yul\":10913:10919   */\n      dup3\n        /* \"#utility.yul\":10905:10911   */\n      dup3\n        /* \"#utility.yul\":10899:10903   */\n      dup6\n        /* \"#utility.yul\":10853:10920   */\n      tag_80\n      jump\t// in\n    tag_205:\n        /* \"#utility.yul\":10947:10948   */\n      0x00\n        /* \"#utility.yul\":10971:10975   */\n      0x20\n        /* \"#utility.yul\":10958:10975   */\n      swap1\n      pop\n        /* \"#utility.yul\":11003:11005   */\n      0x1f\n        /* \"#utility.yul\":10995:11001   */\n      dup4\n        /* \"#utility.yul\":10992:11006   */\n      gt\n        /* \"#utility.yul\":11020:11021   */\n      0x01\n        /* \"#utility.yul\":11015:11633   */\n      dup2\n      eq\n      tag_207\n      jumpi\n        /* \"#utility.yul\":11677:11678   */\n      0x00\n        /* \"#utility.yul\":11694:11700   */\n      dup5\n        /* \"#utility.yul\":11691:11768   */\n      iszero\n      tag_208\n      jumpi\n        /* \"#utility.yul\":11743:11752   */\n      dup3\n        /* \"#utility.yul\":11738:11741   */\n      dup8\n        /* \"#utility.yul\":11734:11753   */\n      add\n        /* \"#utility.yul\":11728:11754   */\n      mload\n        /* \"#utility.yul\":11719:11754   */\n      swap1\n      pop\n        /* \"#utility.yul\":11691:11768   */\n    tag_208:\n        /* \"#utility.yul\":11794:11861   */\n      tag_209\n        /* \"#utility.yul\":11854:11860   */\n      dup6\n        /* \"#utility.yul\":11847:11852   */\n      dup3\n        /* \"#utility.yul\":11794:11861   */\n      tag_83\n      jump\t// in\n    tag_209:\n        /* \"#utility.yul\":11788:11792   */\n      dup7\n        /* \"#utility.yul\":11781:11862   */\n      sstore\n        /* \"#utility.yul\":11650:11872   */\n      pop\n        /* \"#utility.yul\":10985:11872   */\n      jump(tag_206)\n        /* \"#utility.yul\":11015:11633   */\n    tag_207:\n        /* \"#utility.yul\":11067:11071   */\n      0x1f\n        /* \"#utility.yul\":11063:11072   */\n      not\n        /* \"#utility.yul\":11055:11061   */\n      dup5\n        /* \"#utility.yul\":11051:11073   */\n      and\n        /* \"#utility.yul\":11101:11138   */\n      tag_210\n        /* \"#utility.yul\":11133:11137   */\n      dup7\n        /* \"#utility.yul\":11101:11138   */\n      tag_68\n      jump\t// in\n    tag_210:\n        /* \"#utility.yul\":11160:11161   */\n      0x00\n        /* \"#utility.yul\":11174:11382   */\n    tag_211:\n        /* \"#utility.yul\":11188:11195   */\n      dup3\n        /* \"#utility.yul\":11185:11186   */\n      dup2\n        /* \"#utility.yul\":11182:11196   */\n      lt\n        /* \"#utility.yul\":11174:11382   */\n      iszero\n      tag_213\n      jumpi\n        /* \"#utility.yul\":11267:11276   */\n      dup5\n        /* \"#utility.yul\":11262:11265   */\n      dup10\n        /* \"#utility.yul\":11258:11277   */\n      add\n        /* \"#utility.yul\":11252:11278   */\n      mload\n        /* \"#utility.yul\":11244:11250   */\n      dup3\n        /* \"#utility.yul\":11237:11279   */\n      sstore\n        /* \"#utility.yul\":11318:11319   */\n      0x01\n        /* \"#utility.yul\":11310:11316   */\n      dup3\n        /* \"#utility.yul\":11306:11320   */\n      add\n        /* \"#utility.yul\":11296:11320   */\n      swap2\n      pop\n        /* \"#utility.yul\":11365:11367   */\n      0x20\n        /* \"#utility.yul\":11354:11363   */\n      dup6\n        /* \"#utility.yul\":11350:11368   */\n      add\n        /* \"#utility.yul\":11337:11368   */\n      swap5\n      pop\n        /* \"#utility.yul\":11211:11215   */\n      0x20\n        /* \"#utility.yul\":11208:11209   */\n      dup2\n        /* \"#utility.yul\":11204:11216   */\n      add\n        /* \"#utility.yul\":11199:11216   */\n      swap1\n      pop\n        /* \"#utility.yul\":11174:11382   */\n      jump(tag_211)\n    tag_213:\n        /* \"#utility.yul\":11410:11416   */\n      dup7\n        /* \"#utility.yul\":11401:11408   */\n      dup4\n        /* \"#utility.yul\":11398:11417   */\n      lt\n        /* \"#utility.yul\":11395:11574   */\n      iszero\n      tag_214\n      jumpi\n        /* \"#utility.yul\":11468:11477   */\n      dup5\n        /* \"#utility.yul\":11463:11466   */\n      dup10\n        /* \"#utility.yul\":11459:11478   */\n      add\n        /* \"#utility.yul\":11453:11479   */\n      mload\n        /* \"#utility.yul\":11511:11559   */\n      tag_215\n        /* \"#utility.yul\":11553:11557   */\n      0x1f\n        /* \"#utility.yul\":11545:11551   */\n      dup10\n        /* \"#utility.yul\":11541:11558   */\n      and\n        /* \"#utility.yul\":11530:11539   */\n      dup3\n        /* \"#utility.yul\":11511:11559   */\n      tag_82\n      jump\t// in\n    tag_215:\n        /* \"#utility.yul\":11503:11509   */\n      dup4\n        /* \"#utility.yul\":11496:11560   */\n      sstore\n        /* \"#utility.yul\":11418:11574   */\n      pop\n        /* \"#utility.yul\":11395:11574   */\n    tag_214:\n        /* \"#utility.yul\":11620:11621   */\n      0x01\n        /* \"#utility.yul\":11616:11617   */\n      0x02\n        /* \"#utility.yul\":11608:11614   */\n      dup9\n        /* \"#utility.yul\":11604:11618   */\n      mul\n        /* \"#utility.yul\":11600:11622   */\n      add\n        /* \"#utility.yul\":11594:11598   */\n      dup9\n        /* \"#utility.yul\":11587:11623   */\n      sstore\n        /* \"#utility.yul\":11022:11633   */\n      pop\n      pop\n      pop\n        /* \"#utility.yul\":10985:11872   */\n    tag_206:\n      pop\n        /* \"#utility.yul\":10575:11878   */\n      pop\n      pop\n      pop\n        /* \"#utility.yul\":10483:11878   */\n      pop\n      pop\n      jump\t// out\n        /* \"#utility.yul\":11884:12398   */\n    tag_28:\n        /* \"#utility.yul\":12045:12049   */\n      0x00\n        /* \"#utility.yul\":12083:12085   */\n      0x40\n        /* \"#utility.yul\":12072:12081   */\n      dup3\n        /* \"#utility.yul\":12068:12086   */\n      add\n        /* \"#utility.yul\":12060:12086   */\n      swap1\n      pop\n        /* \"#utility.yul\":12132:12141   */\n      dup2\n        /* \"#utility.yul\":12126:12130   */\n      dup2\n        /* \"#utility.yul\":12122:12142   */\n      sub\n        /* \"#utility.yul\":12118:12119   */\n      0x00\n        /* \"#utility.yul\":12107:12116   */\n      dup4\n        /* \"#utility.yul\":12103:12120   */\n      add\n        /* \"#utility.yul\":12096:12143   */\n      mstore\n        /* \"#utility.yul\":12160:12238   */\n      tag_217\n        /* \"#utility.yul\":12233:12237   */\n      dup2\n        /* \"#utility.yul\":12224:12230   */\n      dup6\n        /* \"#utility.yul\":12160:12238   */\n      tag_62\n      jump\t// in\n    tag_217:\n        /* \"#utility.yul\":12152:12238   */\n      swap1\n      pop\n        /* \"#utility.yul\":12285:12294   */\n      dup2\n        /* \"#utility.yul\":12279:12283   */\n      dup2\n        /* \"#utility.yul\":12275:12295   */\n      sub\n        /* \"#utility.yul\":12270:12272   */\n      0x20\n        /* \"#utility.yul\":12259:12268   */\n      dup4\n        /* \"#utility.yul\":12255:12273   */\n      add\n        /* \"#utility.yul\":12248:12296   */\n      mstore\n        /* \"#utility.yul\":12313:12391   */\n      tag_218\n        /* \"#utility.yul\":12386:12390   */\n      dup2\n        /* \"#utility.yul\":12377:12383   */\n      dup5\n        /* \"#utility.yul\":12313:12391   */\n      tag_62\n      jump\t// in\n    tag_218:\n        /* \"#utility.yul\":12305:12391   */\n      swap1\n      pop\n        /* \"#utility.yul\":11884:12398   */\n      swap4\n      swap3\n      pop\n      pop\n      pop\n      jump\t// out\n        /* \"#utility.yul\":12404:12572   */\n    tag_84:\n        /* \"#utility.yul\":12544:12564   */\n      0x44494420646f6573206e6f742065786973740000000000000000000000000000\n        /* \"#utility.yul\":12540:12541   */\n      0x00\n        /* \"#utility.yul\":12532:12538   */\n      dup3\n        /* \"#utility.yul\":12528:12542   */\n      add\n        /* \"#utility.yul\":12521:12565   */\n      mstore\n        /* \"#utility.yul\":12404:12572   */\n      pop\n      jump\t// out\n        /* \"#utility.yul\":12578:12944   */\n    tag_85:\n        /* \"#utility.yul\":12720:12723   */\n      0x00\n        /* \"#utility.yul\":12741:12808   */\n      tag_221\n        /* \"#utility.yul\":12805:12807   */\n      0x12\n        /* \"#utility.yul\":12800:12803   */\n      dup4\n        /* \"#utility.yul\":12741:12808   */\n      tag_60\n      jump\t// in\n    tag_221:\n        /* \"#utility.yul\":12734:12808   */\n      swap2\n      pop\n        /* \"#utility.yul\":12817:12910   */\n      tag_222\n        /* \"#utility.yul\":12906:12909   */\n      dup3\n        /* \"#utility.yul\":12817:12910   */\n      tag_84\n      jump\t// in\n    tag_222:\n        /* \"#utility.yul\":12935:12937   */\n      0x20\n        /* \"#utility.yul\":12930:12933   */\n      dup3\n        /* \"#utility.yul\":12926:12938   */\n      add\n        /* \"#utility.yul\":12919:12938   */\n      swap1\n      pop\n        /* \"#utility.yul\":12578:12944   */\n      swap2\n      swap1\n      pop\n      jump\t// out\n        /* \"#utility.yul\":12950:13369   */\n    tag_34:\n        /* \"#utility.yul\":13116:13120   */\n      0x00\n        /* \"#utility.yul\":13154:13156   */\n      0x20\n        /* \"#utility.yul\":13143:13152   */\n      dup3\n        /* \"#utility.yul\":13139:13157   */\n      add\n        /* \"#utility.yul\":13131:13157   */\n      swap1\n      pop\n        /* \"#utility.yul\":13203:13212   */\n      dup2\n        /* \"#utility.yul\":13197:13201   */\n      dup2\n        /* \"#utility.yul\":13193:13213   */\n      sub\n        /* \"#utility.yul\":13189:13190   */\n      0x00\n        /* \"#utility.yul\":13178:13187   */\n      dup4\n        /* \"#utility.yul\":13174:13191   */\n      add\n        /* \"#utility.yul\":13167:13214   */\n      mstore\n        /* \"#utility.yul\":13231:13362   */\n      tag_224\n        /* \"#utility.yul\":13357:13361   */\n      dup2\n        /* \"#utility.yul\":13231:13362   */\n      tag_85\n      jump\t// in\n    tag_224:\n        /* \"#utility.yul\":13223:13362   */\n      swap1\n      pop\n        /* \"#utility.yul\":12950:13369   */\n      swap2\n      swap1\n      pop\n      jump\t// out\n\n    auxdata: 0xa2646970667358221220057801d92e0f3f5a709d0038a6439ba1058a91bbac6dfb4538952acd4b04c8b964736f6c63430008190033\n}\n",
				"bytecode": {
					"linkReferences": {},
					"object": "6080604052348015600f57600080fd5b50610a9f8061001f6000396000f3fe608060405234801561001057600080fd5b50600436106100365760003560e01c80631539a5071461003b5780639d7f0bbf14610057575b600080fd5b610055600480360381019061005091906104bd565b610087565b005b610071600480360381019061006c9190610535565b610195565b60405161007e91906105fd565b60405180910390f35b60008083604051610098919061065b565b908152602001604051809103902060000180546100b4906106a1565b9050146100f6576040517f08c379a00000000000000000000000000000000000000000000000000000000081526004016100ed9061071e565b60405180910390fd5b60405180604001604052808381526020018281525060008360405161011b919061065b565b9081526020016040518091039020600082015181600001908161013e91906108f4565b50602082015181600101908161015491906108f4565b509050507f15a910d2efaf7349f437c783d73a5fc8330afad390e19ac0d6bebd5ebe1301ee82826040516101899291906109c6565b60405180910390a15050565b6060600080836040516101a8919061065b565b908152602001604051809103902060000180546101c4906106a1565b905003610206576040517f08c379a00000000000000000000000000000000000000000000000000000000081526004016101fd90610a49565b60405180910390fd5b60008083604051610217919061065b565b9081526020016040518091039020604051806040016040529081600082018054610240906106a1565b80601f016020809104026020016040519081016040528092919081815260200182805461026c906106a1565b80156102b95780601f1061028e576101008083540402835291602001916102b9565b820191906000526020600020905b81548152906001019060200180831161029c57829003601f168201915b505050505081526020016001820180546102d2906106a1565b80601f01602080910402602001604051908101604052809291908181526020018280546102fe906106a1565b801561034b5780601f106103205761010080835404028352916020019161034b565b820191906000526020600020905b81548152906001019060200180831161032e57829003601f168201915b50505050508152505090508060200151915050919050565b6000604051905090565b600080fd5b600080fd5b600080fd5b600080fd5b6000601f19601f8301169050919050565b7f4e487b7100000000000000000000000000000000000000000000000000000000600052604160045260246000fd5b6103ca82610381565b810181811067ffffffffffffffff821117156103e9576103e8610392565b5b80604052505050565b60006103fc610363565b905061040882826103c1565b919050565b600067ffffffffffffffff82111561042857610427610392565b5b61043182610381565b9050602081019050919050565b82818337600083830152505050565b600061046061045b8461040d565b6103f2565b90508281526020810184848401111561047c5761047b61037c565b5b61048784828561043e565b509392505050565b600082601f8301126104a4576104a3610377565b5b81356104b484826020860161044d565b91505092915050565b600080604083850312156104d4576104d361036d565b5b600083013567ffffffffffffffff8111156104f2576104f1610372565b5b6104fe8582860161048f565b925050602083013567ffffffffffffffff81111561051f5761051e610372565b5b61052b8582860161048f565b9150509250929050565b60006020828403121561054b5761054a61036d565b5b600082013567ffffffffffffffff81111561056957610568610372565b5b6105758482850161048f565b91505092915050565b600081519050919050565b600082825260208201905092915050565b60005b838110156105b857808201518184015260208101905061059d565b60008484015250505050565b60006105cf8261057e565b6105d98185610589565b93506105e981856020860161059a565b6105f281610381565b840191505092915050565b6000602082019050818103600083015261061781846105c4565b905092915050565b600081905092915050565b60006106358261057e565b61063f818561061f565b935061064f81856020860161059a565b80840191505092915050565b6000610667828461062a565b915081905092915050565b7f4e487b7100000000000000000000000000000000000000000000000000000000600052602260045260246000fd5b600060028204905060018216806106b957607f821691505b6020821081036106cc576106cb610672565b5b50919050565b7f44494420616c7265616479206578697374730000000000000000000000000000600082015250565b6000610708601283610589565b9150610713826106d2565b602082019050919050565b60006020820190508181036000830152610737816106fb565b9050919050565b60008190508160005260206000209050919050565b60006020601f8301049050919050565b600082821b905092915050565b6000600883026107a07fffffffffffffffffffffffffffffffffffffffffffffffffffffffffffffffff82610763565b6107aa8683610763565b95508019841693508086168417925050509392505050565b6000819050919050565b6000819050919050565b60006107f16107ec6107e7846107c2565b6107cc565b6107c2565b9050919050565b6000819050919050565b61080b836107d6565b61081f610817826107f8565b848454610770565b825550505050565b600090565b610834610827565b61083f818484610802565b505050565b5b818110156108635761085860008261082c565b600181019050610845565b5050565b601f8211156108a8576108798161073e565b61088284610753565b81016020851015610891578190505b6108a561089d85610753565b830182610844565b50505b505050565b600082821c905092915050565b60006108cb600019846008026108ad565b1980831691505092915050565b60006108e483836108ba565b9150826002028217905092915050565b6108fd8261057e565b67ffffffffffffffff81111561091657610915610392565b5b61092082546106a1565b61092b828285610867565b600060209050601f83116001811461095e576000841561094c578287015190505b61095685826108d8565b8655506109be565b601f19841661096c8661073e565b60005b828110156109945784890151825560018201915060208501945060208101905061096f565b868310156109b157848901516109ad601f8916826108ba565b8355505b6001600288020188555050505b505050505050565b600060408201905081810360008301526109e081856105c4565b905081810360208301526109f481846105c4565b90509392505050565b7f44494420646f6573206e6f742065786973740000000000000000000000000000600082015250565b6000610a33601283610589565b9150610a3e826109fd565b602082019050919050565b60006020820190508181036000830152610a6281610a26565b905091905056fea2646970667358221220057801d92e0f3f5a709d0038a6439ba1058a91bbac6dfb4538952acd4b04c8b964736f6c63430008190033",
					"opcodes": "PUSH1 0x80 PUSH1 0x40 MSTORE CALLVALUE DUP1 ISZERO PUSH1 0xF JUMPI PUSH1 0x0 DUP1 REVERT JUMPDEST POP PUSH2 0xA9F DUP1 PUSH2 0x1F PUSH1 0x0 CODECOPY PUSH1 0x0 RETURN INVALID PUSH1 0x80 PUSH1 0x40 MSTORE CALLVALUE DUP1 ISZERO PUSH2 0x10 JUMPI PUSH1 0x0 DUP1 REVERT JUMPDEST POP PUSH1 0x4 CALLDATASIZE LT PUSH2 0x36 JUMPI PUSH1 0x0 CALLDATALOAD PUSH1 0xE0 SHR DUP1 PUSH4 0x1539A507 EQ PUSH2 0x3B JUMPI DUP1 PUSH4 0x9D7F0BBF EQ PUSH2 0x57 JUMPI JUMPDEST PUSH1 0x0 DUP1 REVERT JUMPDEST PUSH2 0x55 PUSH1 0x4 DUP1 CALLDATASIZE SUB DUP2 ADD SWAP1 PUSH2 0x50 SWAP2 SWAP1 PUSH2 0x4BD JUMP JUMPDEST PUSH2 0x87 JUMP JUMPDEST STOP JUMPDEST PUSH2 0x71 PUSH1 0x4 DUP1 CALLDATASIZE SUB DUP2 ADD SWAP1 PUSH2 0x6C SWAP2 SWAP1 PUSH2 0x535 JUMP JUMPDEST PUSH2 0x195 JUMP JUMPDEST PUSH1 0x40 MLOAD PUSH2 0x7E SWAP2 SWAP1 PUSH2 0x5FD JUMP JUMPDEST PUSH1 0x40 MLOAD DUP1 SWAP2 SUB SWAP1 RETURN JUMPDEST PUSH1 0x0 DUP1 DUP4 PUSH1 0x40 MLOAD PUSH2 0x98 SWAP2 SWAP1 PUSH2 0x65B JUMP JUMPDEST SWAP1 DUP2 MSTORE PUSH1 0x20 ADD PUSH1 0x40 MLOAD DUP1 SWAP2 SUB SWAP1 KECCAK256 PUSH1 0x0 ADD DUP1 SLOAD PUSH2 0xB4 SWAP1 PUSH2 0x6A1 JUMP JUMPDEST SWAP1 POP EQ PUSH2 0xF6 JUMPI PUSH1 0x40 MLOAD PUSH32 0x8C379A000000000000000000000000000000000000000000000000000000000 DUP2 MSTORE PUSH1 0x4 ADD PUSH2 0xED SWAP1 PUSH2 0x71E JUMP JUMPDEST PUSH1 0x40 MLOAD DUP1 SWAP2 SUB SWAP1 REVERT JUMPDEST PUSH1 0x40 MLOAD DUP1 PUSH1 0x40 ADD PUSH1 0x40 MSTORE DUP1 DUP4 DUP2 MSTORE PUSH1 0x20 ADD DUP3 DUP2 MSTORE POP PUSH1 0x0 DUP4 PUSH1 0x40 MLOAD PUSH2 0x11B SWAP2 SWAP1 PUSH2 0x65B JUMP JUMPDEST SWAP1 DUP2 MSTORE PUSH1 0x20 ADD PUSH1 0x40 MLOAD DUP1 SWAP2 SUB SWAP1 KECCAK256 PUSH1 0x0 DUP3 ADD MLOAD DUP2 PUSH1 0x0 ADD SWAP1 DUP2 PUSH2 0x13E SWAP2 SWAP1 PUSH2 0x8F4 JUMP JUMPDEST POP PUSH1 0x20 DUP3 ADD MLOAD DUP2 PUSH1 0x1 ADD SWAP1 DUP2 PUSH2 0x154 SWAP2 SWAP1 PUSH2 0x8F4 JUMP JUMPDEST POP SWAP1 POP POP PUSH32 0x15A910D2EFAF7349F437C783D73A5FC8330AFAD390E19AC0D6BEBD5EBE1301EE DUP3 DUP3 PUSH1 0x40 MLOAD PUSH2 0x189 SWAP3 SWAP2 SWAP1 PUSH2 0x9C6 JUMP JUMPDEST PUSH1 0x40 MLOAD DUP1 SWAP2 SUB SWAP1 LOG1 POP POP JUMP JUMPDEST PUSH1 0x60 PUSH1 0x0 DUP1 DUP4 PUSH1 0x40 MLOAD PUSH2 0x1A8 SWAP2 SWAP1 PUSH2 0x65B JUMP JUMPDEST SWAP1 DUP2 MSTORE PUSH1 0x20 ADD PUSH1 0x40 MLOAD DUP1 SWAP2 SUB SWAP1 KECCAK256 PUSH1 0x0 ADD DUP1 SLOAD PUSH2 0x1C4 SWAP1 PUSH2 0x6A1 JUMP JUMPDEST SWAP1 POP SUB PUSH2 0x206 JUMPI PUSH1 0x40 MLOAD PUSH32 0x8C379A000000000000000000000000000000000000000000000000000000000 DUP2 MSTORE PUSH1 0x4 ADD PUSH2 0x1FD SWAP1 PUSH2 0xA49 JUMP JUMPDEST PUSH1 0x40 MLOAD DUP1 SWAP2 SUB SWAP1 REVERT JUMPDEST PUSH1 0x0 DUP1 DUP4 PUSH1 0x40 MLOAD PUSH2 0x217 SWAP2 SWAP1 PUSH2 0x65B JUMP JUMPDEST SWAP1 DUP2 MSTORE PUSH1 0x20 ADD PUSH1 0x40 MLOAD DUP1 SWAP2 SUB SWAP1 KECCAK256 PUSH1 0x40 MLOAD DUP1 PUSH1 0x40 ADD PUSH1 0x40 MSTORE SWAP1 DUP2 PUSH1 0x0 DUP3 ADD DUP1 SLOAD PUSH2 0x240 SWAP1 PUSH2 0x6A1 JUMP JUMPDEST DUP1 PUSH1 0x1F ADD PUSH1 0x20 DUP1 SWAP2 DIV MUL PUSH1 0x20 ADD PUSH1 0x40 MLOAD SWAP1 DUP2 ADD PUSH1 0x40 MSTORE DUP1 SWAP3 SWAP2 SWAP1 DUP2 DUP2 MSTORE PUSH1 0x20 ADD DUP3 DUP1 SLOAD PUSH2 0x26C SWAP1 PUSH2 0x6A1 JUMP JUMPDEST DUP1 ISZERO PUSH2 0x2B9 JUMPI DUP1 PUSH1 0x1F LT PUSH2 0x28E JUMPI PUSH2 0x100 DUP1 DUP4 SLOAD DIV MUL DUP4 MSTORE SWAP2 PUSH1 0x20 ADD SWAP2 PUSH2 0x2B9 JUMP JUMPDEST DUP3 ADD SWAP2 SWAP1 PUSH1 0x0 MSTORE PUSH1 0x20 PUSH1 0x0 KECCAK256 SWAP1 JUMPDEST DUP2 SLOAD DUP2 MSTORE SWAP1 PUSH1 0x1 ADD SWAP1 PUSH1 0x20 ADD DUP1 DUP4 GT PUSH2 0x29C JUMPI DUP3 SWAP1 SUB PUSH1 0x1F AND DUP3 ADD SWAP2 JUMPDEST POP POP POP POP POP DUP2 MSTORE PUSH1 0x20 ADD PUSH1 0x1 DUP3 ADD DUP1 SLOAD PUSH2 0x2D2 SWAP1 PUSH2 0x6A1 JUMP JUMPDEST DUP1 PUSH1 0x1F ADD PUSH1 0x20 DUP1 SWAP2 DIV MUL PUSH1 0x20 ADD PUSH1 0x40 MLOAD SWAP1 DUP2 ADD PUSH1 0x40 MSTORE DUP1 SWAP3 SWAP2 SWAP1 DUP2 DUP2 MSTORE PUSH1 0x20 ADD DUP3 DUP1 SLOAD PUSH2 0x2FE SWAP1 PUSH2 0x6A1 JUMP JUMPDEST DUP1 ISZERO PUSH2 0x34B JUMPI DUP1 PUSH1 0x1F LT PUSH2 0x320 JUMPI PUSH2 0x100 DUP1 DUP4 SLOAD DIV MUL DUP4 MSTORE SWAP2 PUSH1 0x20 ADD SWAP2 PUSH2 0x34B JUMP JUMPDEST DUP3 ADD SWAP2 SWAP1 PUSH1 0x0 MSTORE PUSH1 0x20 PUSH1 0x0 KECCAK256 SWAP1 JUMPDEST DUP2 SLOAD DUP2 MSTORE SWAP1 PUSH1 0x1 ADD SWAP1 PUSH1 0x20 ADD DUP1 DUP4 GT PUSH2 0x32E JUMPI DUP3 SWAP1 SUB PUSH1 0x1F AND DUP3 ADD SWAP2 JUMPDEST POP POP POP POP POP DUP2 MSTORE POP POP SWAP1 POP DUP1 PUSH1 0x20 ADD MLOAD SWAP2 POP POP SWAP2 SWAP1 POP JUMP JUMPDEST PUSH1 0x0 PUSH1 0x40 MLOAD SWAP1 POP SWAP1 JUMP JUMPDEST PUSH1 0x0 DUP1 REVERT JUMPDEST PUSH1 0x0 DUP1 REVERT JUMPDEST PUSH1 0x0 DUP1 REVERT JUMPDEST PUSH1 0x0 DUP1 REVERT JUMPDEST PUSH1 0x0 PUSH1 0x1F NOT PUSH1 0x1F DUP4 ADD AND SWAP1 POP SWAP2 SWAP1 POP JUMP JUMPDEST PUSH32 0x4E487B7100000000000000000000000000000000000000000000000000000000 PUSH1 0x0 MSTORE PUSH1 0x41 PUSH1 0x4 MSTORE PUSH1 0x24 PUSH1 0x0 REVERT JUMPDEST PUSH2 0x3CA DUP3 PUSH2 0x381 JUMP JUMPDEST DUP2 ADD DUP2 DUP2 LT PUSH8 0xFFFFFFFFFFFFFFFF DUP3 GT OR ISZERO PUSH2 0x3E9 JUMPI PUSH2 0x3E8 PUSH2 0x392 JUMP JUMPDEST JUMPDEST DUP1 PUSH1 0x40 MSTORE POP POP POP JUMP JUMPDEST PUSH1 0x0 PUSH2 0x3FC PUSH2 0x363 JUMP JUMPDEST SWAP1 POP PUSH2 0x408 DUP3 DUP3 PUSH2 0x3C1 JUMP JUMPDEST SWAP2 SWAP1 POP JUMP JUMPDEST PUSH1 0x0 PUSH8 0xFFFFFFFFFFFFFFFF DUP3 GT ISZERO PUSH2 0x428 JUMPI PUSH2 0x427 PUSH2 0x392 JUMP JUMPDEST JUMPDEST PUSH2 0x431 DUP3 PUSH2 0x381 JUMP JUMPDEST SWAP1 POP PUSH1 0x20 DUP2 ADD SWAP1 POP SWAP2 SWAP1 POP JUMP JUMPDEST DUP3 DUP2 DUP4 CALLDATACOPY PUSH1 0x0 DUP4 DUP4 ADD MSTORE POP POP POP JUMP JUMPDEST PUSH1 0x0 PUSH2 0x460 PUSH2 0x45B DUP5 PUSH2 0x40D JUMP JUMPDEST PUSH2 0x3F2 JUMP JUMPDEST SWAP1 POP DUP3 DUP2 MSTORE PUSH1 0x20 DUP2 ADD DUP5 DUP5 DUP5 ADD GT ISZERO PUSH2 0x47C JUMPI PUSH2 0x47B PUSH2 0x37C JUMP JUMPDEST JUMPDEST PUSH2 0x487 DUP5 DUP3 DUP6 PUSH2 0x43E JUMP JUMPDEST POP SWAP4 SWAP3 POP POP POP JUMP JUMPDEST PUSH1 0x0 DUP3 PUSH1 0x1F DUP4 ADD SLT PUSH2 0x4A4 JUMPI PUSH2 0x4A3 PUSH2 0x377 JUMP JUMPDEST JUMPDEST DUP2 CALLDATALOAD PUSH2 0x4B4 DUP5 DUP3 PUSH1 0x20 DUP7 ADD PUSH2 0x44D JUMP JUMPDEST SWAP2 POP POP SWAP3 SWAP2 POP POP JUMP JUMPDEST PUSH1 0x0 DUP1 PUSH1 0x40 DUP4 DUP6 SUB SLT ISZERO PUSH2 0x4D4 JUMPI PUSH2 0x4D3 PUSH2 0x36D JUMP JUMPDEST JUMPDEST PUSH1 0x0 DUP4 ADD CALLDATALOAD PUSH8 0xFFFFFFFFFFFFFFFF DUP2 GT ISZERO PUSH2 0x4F2 JUMPI PUSH2 0x4F1 PUSH2 0x372 JUMP JUMPDEST JUMPDEST PUSH2 0x4FE DUP6 DUP3 DUP7 ADD PUSH2 0x48F JUMP JUMPDEST SWAP3 POP POP PUSH1 0x20 DUP4 ADD CALLDATALOAD PUSH8 0xFFFFFFFFFFFFFFFF DUP2 GT ISZERO PUSH2 0x51F JUMPI PUSH2 0x51E PUSH2 0x372 JUMP JUMPDEST JUMPDEST PUSH2 0x52B DUP6 DUP3 DUP7 ADD PUSH2 0x48F JUMP JUMPDEST SWAP2 POP POP SWAP3 POP SWAP3 SWAP1 POP JUMP JUMPDEST PUSH1 0x0 PUSH1 0x20 DUP3 DUP5 SUB SLT ISZERO PUSH2 0x54B JUMPI PUSH2 0x54A PUSH2 0x36D JUMP JUMPDEST JUMPDEST PUSH1 0x0 DUP3 ADD CALLDATALOAD PUSH8 0xFFFFFFFFFFFFFFFF DUP2 GT ISZERO PUSH2 0x569 JUMPI PUSH2 0x568 PUSH2 0x372 JUMP JUMPDEST JUMPDEST PUSH2 0x575 DUP5 DUP3 DUP6 ADD PUSH2 0x48F JUMP JUMPDEST SWAP2 POP POP SWAP3 SWAP2 POP POP JUMP JUMPDEST PUSH1 0x0 DUP2 MLOAD SWAP1 POP SWAP2 SWAP1 POP JUMP JUMPDEST PUSH1 0x0 DUP3 DUP3 MSTORE PUSH1 0x20 DUP3 ADD SWAP1 POP SWAP3 SWAP2 POP POP JUMP JUMPDEST PUSH1 0x0 JUMPDEST DUP4 DUP2 LT ISZERO PUSH2 0x5B8 JUMPI DUP1 DUP3 ADD MLOAD DUP2 DUP5 ADD MSTORE PUSH1 0x20 DUP2 ADD SWAP1 POP PUSH2 0x59D JUMP JUMPDEST PUSH1 0x0 DUP5 DUP5 ADD MSTORE POP POP POP POP JUMP JUMPDEST PUSH1 0x0 PUSH2 0x5CF DUP3 PUSH2 0x57E JUMP JUMPDEST PUSH2 0x5D9 DUP2 DUP6 PUSH2 0x589 JUMP JUMPDEST SWAP4 POP PUSH2 0x5E9 DUP2 DUP6 PUSH1 0x20 DUP7 ADD PUSH2 0x59A JUMP JUMPDEST PUSH2 0x5F2 DUP2 PUSH2 0x381 JUMP JUMPDEST DUP5 ADD SWAP2 POP POP SWAP3 SWAP2 POP POP JUMP JUMPDEST PUSH1 0x0 PUSH1 0x20 DUP3 ADD SWAP1 POP DUP2 DUP2 SUB PUSH1 0x0 DUP4 ADD MSTORE PUSH2 0x617 DUP2 DUP5 PUSH2 0x5C4 JUMP JUMPDEST SWAP1 POP SWAP3 SWAP2 POP POP JUMP JUMPDEST PUSH1 0x0 DUP2 SWAP1 POP SWAP3 SWAP2 POP POP JUMP JUMPDEST PUSH1 0x0 PUSH2 0x635 DUP3 PUSH2 0x57E JUMP JUMPDEST PUSH2 0x63F DUP2 DUP6 PUSH2 0x61F JUMP JUMPDEST SWAP4 POP PUSH2 0x64F DUP2 DUP6 PUSH1 0x20 DUP7 ADD PUSH2 0x59A JUMP JUMPDEST DUP1 DUP5 ADD SWAP2 POP POP SWAP3 SWAP2 POP POP JUMP JUMPDEST PUSH1 0x0 PUSH2 0x667 DUP3 DUP5 PUSH2 0x62A JUMP JUMPDEST SWAP2 POP DUP2 SWAP1 POP SWAP3 SWAP2 POP POP JUMP JUMPDEST PUSH32 0x4E487B7100000000000000000000000000000000000000000000000000000000 PUSH1 0x0 MSTORE PUSH1 0x22 PUSH1 0x4 MSTORE PUSH1 0x24 PUSH1 0x0 REVERT JUMPDEST PUSH1 0x0 PUSH1 0x2 DUP3 DIV SWAP1 POP PUSH1 0x1 DUP3 AND DUP1 PUSH2 0x6B9 JUMPI PUSH1 0x7F DUP3 AND SWAP2 POP JUMPDEST PUSH1 0x20 DUP3 LT DUP2 SUB PUSH2 0x6CC JUMPI PUSH2 0x6CB PUSH2 0x672 JUMP JUMPDEST JUMPDEST POP SWAP2 SWAP1 POP JUMP JUMPDEST PUSH32 0x44494420616C7265616479206578697374730000000000000000000000000000 PUSH1 0x0 DUP3 ADD MSTORE POP JUMP JUMPDEST PUSH1 0x0 PUSH2 0x708 PUSH1 0x12 DUP4 PUSH2 0x589 JUMP JUMPDEST SWAP2 POP PUSH2 0x713 DUP3 PUSH2 0x6D2 JUMP JUMPDEST PUSH1 0x20 DUP3 ADD SWAP1 POP SWAP2 SWAP1 POP JUMP JUMPDEST PUSH1 0x0 PUSH1 0x20 DUP3 ADD SWAP1 POP DUP2 DUP2 SUB PUSH1 0x0 DUP4 ADD MSTORE PUSH2 0x737 DUP2 PUSH2 0x6FB JUMP JUMPDEST SWAP1 POP SWAP2 SWAP1 POP JUMP JUMPDEST PUSH1 0x0 DUP2 SWAP1 POP DUP2 PUSH1 0x0 MSTORE PUSH1 0x20 PUSH1 0x0 KECCAK256 SWAP1 POP SWAP2 SWAP1 POP JUMP JUMPDEST PUSH1 0x0 PUSH1 0x20 PUSH1 0x1F DUP4 ADD DIV SWAP1 POP SWAP2 SWAP1 POP JUMP JUMPDEST PUSH1 0x0 DUP3 DUP3 SHL SWAP1 POP SWAP3 SWAP2 POP POP JUMP JUMPDEST PUSH1 0x0 PUSH1 0x8 DUP4 MUL PUSH2 0x7A0 PUSH32 0xFFFFFFFFFFFFFFFFFFFFFFFFFFFFFFFFFFFFFFFFFFFFFFFFFFFFFFFFFFFFFFFF DUP3 PUSH2 0x763 JUMP JUMPDEST PUSH2 0x7AA DUP7 DUP4 PUSH2 0x763 JUMP JUMPDEST SWAP6 POP DUP1 NOT DUP5 AND SWAP4 POP DUP1 DUP7 AND DUP5 OR SWAP3 POP POP POP SWAP4 SWAP3 POP POP POP JUMP JUMPDEST PUSH1 0x0 DUP2 SWAP1 POP SWAP2 SWAP1 POP JUMP JUMPDEST PUSH1 0x0 DUP2 SWAP1 POP SWAP2 SWAP1 POP JUMP JUMPDEST PUSH1 0x0 PUSH2 0x7F1 PUSH2 0x7EC PUSH2 0x7E7 DUP5 PUSH2 0x7C2 JUMP JUMPDEST PUSH2 0x7CC JUMP JUMPDEST PUSH2 0x7C2 JUMP JUMPDEST SWAP1 POP SWAP2 SWAP1 POP JUMP JUMPDEST PUSH1 0x0 DUP2 SWAP1 POP SWAP2 SWAP1 POP JUMP JUMPDEST PUSH2 0x80B DUP4 PUSH2 0x7D6 JUMP JUMPDEST PUSH2 0x81F PUSH2 0x817 DUP3 PUSH2 0x7F8 JUMP JUMPDEST DUP5 DUP5 SLOAD PUSH2 0x770 JUMP JUMPDEST DUP3 SSTORE POP POP POP POP JUMP JUMPDEST PUSH1 0x0 SWAP1 JUMP JUMPDEST PUSH2 0x834 PUSH2 0x827 JUMP JUMPDEST PUSH2 0x83F DUP2 DUP5 DUP5 PUSH2 0x802 JUMP JUMPDEST POP POP POP JUMP JUMPDEST JUMPDEST DUP2 DUP2 LT ISZERO PUSH2 0x863 JUMPI PUSH2 0x858 PUSH1 0x0 DUP3 PUSH2 0x82C JUMP JUMPDEST PUSH1 0x1 DUP2 ADD SWAP1 POP PUSH2 0x845 JUMP JUMPDEST POP POP JUMP JUMPDEST PUSH1 0x1F DUP3 GT ISZERO PUSH2 0x8A8 JUMPI PUSH2 0x879 DUP2 PUSH2 0x73E JUMP JUMPDEST PUSH2 0x882 DUP5 PUSH2 0x753 JUMP JUMPDEST DUP2 ADD PUSH1 0x20 DUP6 LT ISZERO PUSH2 0x891 JUMPI DUP2 SWAP1 POP JUMPDEST PUSH2 0x8A5 PUSH2 0x89D DUP6 PUSH2 0x753 JUMP JUMPDEST DUP4 ADD DUP3 PUSH2 0x844 JUMP JUMPDEST POP POP JUMPDEST POP POP POP JUMP JUMPDEST PUSH1 0x0 DUP3 DUP3 SHR SWAP1 POP SWAP3 SWAP2 POP POP JUMP JUMPDEST PUSH1 0x0 PUSH2 0x8CB PUSH1 0x0 NOT DUP5 PUSH1 0x8 MUL PUSH2 0x8AD JUMP JUMPDEST NOT DUP1 DUP4 AND SWAP2 POP POP SWAP3 SWAP2 POP POP JUMP JUMPDEST PUSH1 0x0 PUSH2 0x8E4 DUP4 DUP4 PUSH2 0x8BA JUMP JUMPDEST SWAP2 POP DUP3 PUSH1 0x2 MUL DUP3 OR SWAP1 POP SWAP3 SWAP2 POP POP JUMP JUMPDEST PUSH2 0x8FD DUP3 PUSH2 0x57E JUMP JUMPDEST PUSH8 0xFFFFFFFFFFFFFFFF DUP2 GT ISZERO PUSH2 0x916 JUMPI PUSH2 0x915 PUSH2 0x392 JUMP JUMPDEST JUMPDEST PUSH2 0x920 DUP3 SLOAD PUSH2 0x6A1 JUMP JUMPDEST PUSH2 0x92B DUP3 DUP3 DUP6 PUSH2 0x867 JUMP JUMPDEST PUSH1 0x0 PUSH1 0x20 SWAP1 POP PUSH1 0x1F DUP4 GT PUSH1 0x1 DUP2 EQ PUSH2 0x95E JUMPI PUSH1 0x0 DUP5 ISZERO PUSH2 0x94C JUMPI DUP3 DUP8 ADD MLOAD SWAP1 POP JUMPDEST PUSH2 0x956 DUP6 DUP3 PUSH2 0x8D8 JUMP JUMPDEST DUP7 SSTORE POP PUSH2 0x9BE JUMP JUMPDEST PUSH1 0x1F NOT DUP5 AND PUSH2 0x96C DUP7 PUSH2 0x73E JUMP JUMPDEST PUSH1 0x0 JUMPDEST DUP3 DUP2 LT ISZERO PUSH2 0x994 JUMPI DUP5 DUP10 ADD MLOAD DUP3 SSTORE PUSH1 0x1 DUP3 ADD SWAP2 POP PUSH1 0x20 DUP6 ADD SWAP5 POP PUSH1 0x20 DUP2 ADD SWAP1 POP PUSH2 0x96F JUMP JUMPDEST DUP7 DUP4 LT ISZERO PUSH2 0x9B1 JUMPI DUP5 DUP10 ADD MLOAD PUSH2 0x9AD PUSH1 0x1F DUP10 AND DUP3 PUSH2 0x8BA JUMP JUMPDEST DUP4 SSTORE POP JUMPDEST PUSH1 0x1 PUSH1 0x2 DUP9 MUL ADD DUP9 SSTORE POP POP POP JUMPDEST POP POP POP POP POP POP JUMP JUMPDEST PUSH1 0x0 PUSH1 0x40 DUP3 ADD SWAP1 POP DUP2 DUP2 SUB PUSH1 0x0 DUP4 ADD MSTORE PUSH2 0x9E0 DUP2 DUP6 PUSH2 0x5C4 JUMP JUMPDEST SWAP1 POP DUP2 DUP2 SUB PUSH1 0x20 DUP4 ADD MSTORE PUSH2 0x9F4 DUP2 DUP5 PUSH2 0x5C4 JUMP JUMPDEST SWAP1 POP SWAP4 SWAP3 POP POP POP JUMP JUMPDEST PUSH32 0x44494420646F6573206E6F742065786973740000000000000000000000000000 PUSH1 0x0 DUP3 ADD MSTORE POP JUMP JUMPDEST PUSH1 0x0 PUSH2 0xA33 PUSH1 0x12 DUP4 PUSH2 0x589 JUMP JUMPDEST SWAP2 POP PUSH2 0xA3E DUP3 PUSH2 0x9FD JUMP JUMPDEST PUSH1 0x20 DUP3 ADD SWAP1 POP SWAP2 SWAP1 POP JUMP JUMPDEST PUSH1 0x0 PUSH1 0x20 DUP3 ADD SWAP1 POP DUP2 DUP2 SUB PUSH1 0x0 DUP4 ADD MSTORE PUSH2 0xA62 DUP2 PUSH2 0xA26 JUMP JUMPDEST SWAP1 POP SWAP2 SWAP1 POP JUMP INVALID LOG2 PUSH5 0x6970667358 0x22 SLT KECCAK256 SDIV PUSH25 0x1D92E0F3F5A709D0038A6439BA1058A91BBAC6DFB4538952A 0xCD 0x4B DIV 0xC8 0xB9 PUSH5 0x736F6C6343 STOP ADDMOD NOT STOP CALLER "
				},
				"gasEstimates": {
					"creation": {
						"codeDepositCost": "543800",
						"executionCost": "575",
						"totalCost": "544375"
					},
					"external": {
						"createDID(string,string)": "infinite",
						"resolveDID(string)": "infinite"
					}
				},
				"methodIdentifiers": {
					"createDID(string,string)": "1539a507",
					"resolveDID(string)": "9d7f0bbf"
				}
			},
			"storageLayout": {
				"storage": [
					{
						"astId": 11,
						"contract": "contracts/did.sol:DIDRegistry",
						"label": "didDocuments",
						"offset": 0,
						"slot": "0",
						"type": "t_mapping(t_string_memory_ptr,t_struct(DIDDocument)6_storage)"
					}
				],
				"types": {
					"t_mapping(t_string_memory_ptr,t_struct(DIDDocument)6_storage)": {
						"encoding": "mapping",
						"key": "t_string_memory_ptr",
						"label": "mapping(string => struct DIDRegistry.DIDDocument)",
						"numberOfBytes": "32",
						"value": "t_struct(DIDDocument)6_storage"
					},
					"t_string_memory_ptr": {
						"encoding": "bytes",
						"label": "string",
						"numberOfBytes": "32"
					},
					"t_string_storage": {
						"encoding": "bytes",
						"label": "string",
						"numberOfBytes": "32"
					},
					"t_struct(DIDDocument)6_storage": {
						"encoding": "inplace",
						"label": "struct DIDRegistry.DIDDocument",
						"members": [
							{
								"astId": 3,
								"contract": "contracts/did.sol:DIDRegistry",
								"label": "did",
								"offset": 0,
								"slot": "0",
								"type": "t_string_storage"
							},
							{
								"astId": 5,
								"contract": "contracts/did.sol:DIDRegistry",
								"label": "didDocument",
								"offset": 0,
								"slot": "1",
								"type": "t_string_storage"
							}
						],
						"numberOfBytes": "64"
					}
				}
			},
			"userdoc": {
				"kind": "user",
				"methods": {},
				"version": 1
			}
		}
	}
}